{
  "contractName": "GiveBox",
  "abi": [
    {
      "constant": true,
      "inputs": [
        {
          "name": "",
          "type": "uint256"
        }
      ],
      "name": "projects",
      "outputs": [
        {
          "name": "id",
          "type": "uint16"
        },
        {
          "name": "title",
          "type": "string"
        },
        {
          "name": "goal",
          "type": "uint256"
        },
        {
          "name": "fund",
          "type": "uint256"
        },
        {
          "name": "date",
          "type": "uint256"
        },
        {
          "name": "trooperSelect",
          "type": "uint8"
        },
        {
          "name": "trooperCount",
          "type": "uint8"
        },
        {
          "name": "backerCount",
          "type": "uint16"
        },
        {
          "name": "isClosed",
          "type": "bool"
        },
        {
          "name": "isHidden",
          "type": "bool"
        }
      ],
      "payable": false,
      "stateMutability": "view",
      "type": "function"
    },
    {
      "constant": false,
      "inputs": [],
      "name": "renounceWhitelistAdmin",
      "outputs": [],
      "payable": false,
      "stateMutability": "nonpayable",
      "type": "function"
    },
    {
      "constant": true,
      "inputs": [],
      "name": "tokenContract",
      "outputs": [
        {
          "name": "",
          "type": "address"
        }
      ],
      "payable": false,
      "stateMutability": "view",
      "type": "function"
    },
    {
      "constant": false,
      "inputs": [
        {
          "name": "account",
          "type": "address"
        }
      ],
      "name": "addWhitelistAdmin",
      "outputs": [],
      "payable": false,
      "stateMutability": "nonpayable",
      "type": "function"
    },
    {
      "constant": true,
      "inputs": [
        {
          "name": "account",
          "type": "address"
        }
      ],
      "name": "isWhitelistAdmin",
      "outputs": [
        {
          "name": "",
          "type": "bool"
        }
      ],
      "payable": false,
      "stateMutability": "view",
      "type": "function"
    },
    {
      "constant": true,
      "inputs": [],
      "name": "administrator",
      "outputs": [
        {
          "name": "",
          "type": "address"
        }
      ],
      "payable": false,
      "stateMutability": "view",
      "type": "function"
    },
    {
      "inputs": [],
      "payable": false,
      "stateMutability": "nonpayable",
      "type": "constructor"
    },
    {
      "anonymous": false,
      "inputs": [
        {
          "indexed": true,
          "name": "account",
          "type": "address"
        }
      ],
      "name": "WhitelistAdminAdded",
      "type": "event"
    },
    {
      "anonymous": false,
      "inputs": [
        {
          "indexed": true,
          "name": "account",
          "type": "address"
        }
      ],
      "name": "WhitelistAdminRemoved",
      "type": "event"
    },
    {
      "constant": false,
      "inputs": [
        {
          "name": "title",
          "type": "string"
        }
      ],
      "name": "addProject",
      "outputs": [
        {
          "name": "id",
          "type": "uint256"
        }
      ],
      "payable": false,
      "stateMutability": "nonpayable",
      "type": "function"
    },
    {
      "constant": true,
      "inputs": [
        {
          "name": "projectId",
          "type": "uint16"
        }
      ],
      "name": "getProject",
      "outputs": [
        {
          "name": "id",
          "type": "uint16"
        },
        {
          "name": "title",
          "type": "string"
        },
        {
          "name": "goal",
          "type": "uint256"
        },
        {
          "name": "fund",
          "type": "uint256"
        },
        {
          "name": "date",
          "type": "uint256"
        },
        {
          "name": "trooperSelect",
          "type": "uint8"
        },
        {
          "name": "trooperCount",
          "type": "uint8"
        },
        {
          "name": "backerCount",
          "type": "uint16"
        },
        {
          "name": "isClosed",
          "type": "bool"
        },
        {
          "name": "isHidden",
          "type": "bool"
        }
      ],
      "payable": false,
      "stateMutability": "view",
      "type": "function"
    },
    {
      "constant": false,
      "inputs": [
        {
          "name": "projectId",
          "type": "uint16"
        },
        {
          "name": "title",
          "type": "string"
        }
      ],
      "name": "editProjectTitle",
      "outputs": [],
      "payable": false,
      "stateMutability": "nonpayable",
      "type": "function"
    },
    {
      "constant": false,
      "inputs": [
        {
          "name": "projectId",
          "type": "uint16"
        },
        {
          "name": "name",
          "type": "string"
        },
        {
          "name": "amount",
          "type": "uint256"
        },
        {
          "name": "applyTrooper",
          "type": "bool"
        }
      ],
      "name": "give",
      "outputs": [
        {
          "name": "",
          "type": "bool"
        }
      ],
      "payable": false,
      "stateMutability": "nonpayable",
      "type": "function"
    },
    {
      "constant": true,
      "inputs": [
        {
          "name": "projectId",
          "type": "uint16"
        }
      ],
      "name": "getBackers",
      "outputs": [
        {
          "name": "",
          "type": "uint256[]"
        },
        {
          "name": "",
          "type": "uint256[]"
        },
        {
          "name": "",
          "type": "uint256[]"
        },
        {
          "name": "",
          "type": "uint256[]"
        },
        {
          "name": "",
          "type": "bool[]"
        },
        {
          "name": "",
          "type": "bool[]"
        },
        {
          "name": "",
          "type": "bytes"
        }
      ],
      "payable": false,
      "stateMutability": "view",
      "type": "function"
    },
    {
      "constant": false,
      "inputs": [
        {
          "name": "_tokenContract",
          "type": "address"
        }
      ],
      "name": "setToken",
      "outputs": [],
      "payable": false,
      "stateMutability": "nonpayable",
      "type": "function"
    }
  ],
  "bytecode": "0x60806040526000600260146101000a81548161ffff021916908361ffff16021790555060006003553480156200003457600080fd5b5062000046336200008d60201b60201c565b33600260006101000a81548173ffffffffffffffffffffffffffffffffffffffff021916908373ffffffffffffffffffffffffffffffffffffffff160217905550620002b2565b620000a8816000620000ee60201b62001b741790919060201c565b8073ffffffffffffffffffffffffffffffffffffffff167f22380c05984257a1cb900161c713dd71d39e74820f1aea43bd3f1bdd2096129960405160405180910390a250565b620001008282620001d260201b60201c565b1562000174576040517f08c379a000000000000000000000000000000000000000000000000000000000815260040180806020018281038252601f8152602001807f526f6c65733a206163636f756e7420616c72656164792068617320726f6c650081525060200191505060405180910390fd5b60018260000160008373ffffffffffffffffffffffffffffffffffffffff1673ffffffffffffffffffffffffffffffffffffffff16815260200190815260200160002060006101000a81548160ff0219169083151502179055505050565b60008073ffffffffffffffffffffffffffffffffffffffff168273ffffffffffffffffffffffffffffffffffffffff1614156200025b576040517f08c379a0000000000000000000000000000000000000000000000000000000008152600401808060200182810382526022815260200180620020e56022913960400191505060405180910390fd5b8260000160008373ffffffffffffffffffffffffffffffffffffffff1673ffffffffffffffffffffffffffffffffffffffff16815260200190815260200160002060009054906101000a900460ff16905092915050565b611e2380620002c26000396000f3fe608060405234801561001057600080fd5b50600436106100b45760003560e01c8063bb5f747b11610071578063bb5f747b1461036e578063be745e9a146103ca578063d710633a14610493578063d7b9844b146105a1578063e311f99e146107fc578063f53d0a8e146108f3576100b4565b80630ed047d4146100b9578063107046bd14610188578063144fa6d7146102925780634c5a628c146102d657806355a373d6146102e05780637362d9c81461032a575b600080fd5b610172600480360360208110156100cf57600080fd5b81019080803590602001906401000000008111156100ec57600080fd5b8201836020820111156100fe57600080fd5b8035906020019184600183028401116401000000008311171561012057600080fd5b91908080601f016020809104026020016040519081016040528093929190818152602001838380828437600081840152601f19601f82011690508083019250505050505050919291929050505061093d565b6040518082815260200191505060405180910390f35b6101b46004803603602081101561019e57600080fd5b8101908080359060200190929190505050610bb4565b604051808b61ffff1661ffff168152602001806020018a81526020018981526020018881526020018760ff1660ff1681526020018660ff1660ff1681526020018561ffff1661ffff168152602001841515151581526020018315151515815260200182810382528b818151815260200191508051906020019080838360005b8381101561024e578082015181840152602081019050610233565b50505050905090810190601f16801561027b5780820380516001836020036101000a031916815260200191505b509b50505050505050505050505060405180910390f35b6102d4600480360360208110156102a857600080fd5b81019080803573ffffffffffffffffffffffffffffffffffffffff169060200190929190505050610cf0565b005b6102de610d92565b005b6102e8610d9d565b604051808273ffffffffffffffffffffffffffffffffffffffff1673ffffffffffffffffffffffffffffffffffffffff16815260200191505060405180910390f35b61036c6004803603602081101561034057600080fd5b81019080803573ffffffffffffffffffffffffffffffffffffffff169060200190929190505050610dc3565b005b6103b06004803603602081101561038457600080fd5b81019080803573ffffffffffffffffffffffffffffffffffffffff169060200190929190505050610e2d565b604051808215151515815260200191505060405180910390f35b610491600480360360408110156103e057600080fd5b81019080803561ffff1690602001909291908035906020019064010000000081111561040b57600080fd5b82018360208201111561041d57600080fd5b8035906020019184600183028401116401000000008311171561043f57600080fd5b91908080601f016020809104026020016040519081016040528093929190818152602001838380828437600081840152601f19601f820116905080830192505050505050509192919290505050610e4a565b005b6104c3600480360360208110156104a957600080fd5b81019080803561ffff169060200190929190505050610edb565b604051808b61ffff1661ffff168152602001806020018a81526020018981526020018881526020018760ff1660ff1681526020018660ff1660ff1681526020018561ffff1661ffff168152602001841515151581526020018315151515815260200182810382528b818151815260200191508051906020019080838360005b8381101561055d578082015181840152602081019050610542565b50505050905090810190601f16801561058a5780820380516001836020036101000a031916815260200191505b509b50505050505050505050505060405180910390f35b6105d1600480360360208110156105b757600080fd5b81019080803561ffff169060200190929190505050611045565b604051808060200180602001806020018060200180602001806020018060200188810388528f818151815260200191508051906020019060200280838360005b8381101561062c578082015181840152602081019050610611565b5050505090500188810387528e818151815260200191508051906020019060200280838360005b8381101561066e578082015181840152602081019050610653565b5050505090500188810386528d818151815260200191508051906020019060200280838360005b838110156106b0578082015181840152602081019050610695565b5050505090500188810385528c818151815260200191508051906020019060200280838360005b838110156106f25780820151818401526020810190506106d7565b5050505090500188810384528b818151815260200191508051906020019060200280838360005b83811015610734578082015181840152602081019050610719565b5050505090500188810383528a818151815260200191508051906020019060200280838360005b8381101561077657808201518184015260208101905061075b565b50505050905001888103825289818151815260200191508051906020019080838360005b838110156107b557808201518184015260208101905061079a565b50505050905090810190601f1680156107e25780820380516001836020036101000a031916815260200191505b509e50505050505050505050505050505060405180910390f35b6108d96004803603608081101561081257600080fd5b81019080803561ffff1690602001909291908035906020019064010000000081111561083d57600080fd5b82018360208201111561084f57600080fd5b8035906020019184600183028401116401000000008311171561087157600080fd5b91908080601f016020809104026020016040519081016040528093929190818152602001838380828437600081840152601f19601f82011690508083019250505050505050919291929080359060200190929190803515159060200190929190505050611561565b604051808215151515815260200191505060405180910390f35b6108fb61185f565b604051808273ffffffffffffffffffffffffffffffffffffffff1673ffffffffffffffffffffffffffffffffffffffff16815260200191505060405180910390f35b600061094833610e2d565b61099d576040517f08c379a0000000000000000000000000000000000000000000000000000000008152600401808060200182810382526040815260200180611db86040913960400191505060405180910390fd5b604051806101400160405280600260149054906101000a900461ffff1661ffff1681526020018381526020016000815260200160008152602001428152602001600060ff168152602001600060ff168152602001600061ffff1681526020016000151581526020016000151581525060046000600260149054906101000a900461ffff1661ffff16815260200190815260200160002060008201518160000160006101000a81548161ffff021916908361ffff1602179055506020820151816001019080519060200190610a72929190611c4f565b5060408201518160020155606082015181600301556080820151816004015560a08201518160050160006101000a81548160ff021916908360ff16021790555060c08201518160050160016101000a81548160ff021916908360ff16021790555060e08201518160050160026101000a81548161ffff021916908361ffff1602179055506101008201518160050160046101000a81548160ff0219169083151502179055506101208201518160050160056101000a81548160ff0219169083151502179055509050506002601481819054906101000a900461ffff168092919060010191906101000a81548161ffff021916908361ffff1602179055505060046000600260149054906101000a900461ffff1661ffff16815260200190815260200160002060000160009054906101000a900461ffff1661ffff169050919050565b60046020528060005260406000206000915090508060000160009054906101000a900461ffff1690806001018054600181600116156101000203166002900480601f016020809104026020016040519081016040528092919081815260200182805460018160011615610100020316600290048015610c745780601f10610c4957610100808354040283529160200191610c74565b820191906000526020600020905b815481529060010190602001808311610c5757829003601f168201915b5050505050908060020154908060030154908060040154908060050160009054906101000a900460ff16908060050160019054906101000a900460ff16908060050160029054906101000a900461ffff16908060050160049054906101000a900460ff16908060050160059054906101000a900460ff1690508a565b610cf933610e2d565b610d4e576040517f08c379a0000000000000000000000000000000000000000000000000000000008152600401808060200182810382526040815260200180611db86040913960400191505060405180910390fd5b80600160006101000a81548173ffffffffffffffffffffffffffffffffffffffff021916908373ffffffffffffffffffffffffffffffffffffffff16021790555050565b610d9b33611885565b565b600160009054906101000a900473ffffffffffffffffffffffffffffffffffffffff1681565b610dcc33610e2d565b610e21576040517f08c379a0000000000000000000000000000000000000000000000000000000008152600401808060200182810382526040815260200180611db86040913960400191505060405180910390fd5b610e2a816118df565b50565b6000610e4382600061193990919063ffffffff16565b9050919050565b610e5333610e2d565b610ea8576040517f08c379a0000000000000000000000000000000000000000000000000000000008152600401808060200182810382526040815260200180611db86040913960400191505060405180910390fd5b80600460008461ffff1681526020019081526020016000206001019080519060200190610ed6929190611ccf565b505050565b600060606000806000806000806000806000600460008d61ffff16815260200190815260200160002090508060000160009054906101000a900461ffff16816001018260020154836003015484600401548560050160009054906101000a900460ff168660050160019054906101000a900460ff168760050160029054906101000a900461ffff168860050160049054906101000a900460ff168960050160059054906101000a900460ff16888054600181600116156101000203166002900480601f01602080910402602001604051908101604052809291908181526020018280546001816001161561010002031660029004801561101c5780601f10610ff15761010080835404028352916020019161101c565b820191906000526020600020905b815481529060010190602001808311610fff57829003601f168201915b505050505098509a509a509a509a509a509a509a509a509a509a50509193959799509193959799565b60608060608060608060606000600460008a61ffff168152602001908152602001600020905060608160050160029054906101000a900461ffff1661ffff166040519080825280602002602001820160405280156110b25781602001602082028038833980820191505090505b50905060608260050160029054906101000a900461ffff1661ffff166040519080825280602002602001820160405280156110fc5781602001602082028038833980820191505090505b50905060608360050160029054906101000a900461ffff1661ffff166040519080825280602002602001820160405280156111465781602001602082028038833980820191505090505b50905060608460050160029054906101000a900461ffff1661ffff166040519080825280602002602001820160405280156111905781602001602082028038833980820191505090505b50905060608560050160029054906101000a900461ffff1661ffff166040519080825280602002602001820160405280156111da5781602001602082028038833980820191505090505b50905060608660050160029054906101000a900461ffff1661ffff166040519080825280602002602001820160405280156112245781602001602082028038833980820191505090505b50905060608760050160029054906101000a900461ffff1660400261ffff166040519080825280601f01601f1916602001820160405280156112755781602001600182028038833980820191505090505b50905060008860050160029054906101000a900461ffff1660400261ffff16905060008090505b8960050160029054906101000a900461ffff1661ffff168161ffff1610156115375760008a60060160008361ffff16815260200190815260200160002090508060000160009054906101000a900461ffff1661ffff168a8361ffff168151811061130257fe5b6020026020010181815250508060020154898361ffff168151811061132357fe5b6020026020010181815250508060030154888361ffff168151811061134457fe5b6020026020010181815250508060050154878361ffff168151811061136557fe5b6020026020010181815250508060040160009054906101000a900460ff16868361ffff168151811061139357fe5b6020026020010190151590811515815250508060040160019054906101000a900460ff16858361ffff16815181106113c757fe5b60200260200101901515908115158152505061148083826001018054600181600116156101000203166002900480601f0160208091040260200160405190810160405280929190818152602001828054600181600116156101000203166002900480156114755780601f1061144a57610100808354040283529160200191611475565b820191906000526020600020905b81548152906001019060200180831161145857829003601f168201915b505050505086611a17565b611525816001018054600181600116156101000203166002900480601f01602080910402602001604051908101604052809291908181526020018280546001816001161561010002031660029004801561151b5780601f106114f05761010080835404028352916020019161151b565b820191906000526020600020905b8154815290600101906020018083116114fe57829003601f168201915b5050505050611a78565b8303925050808060010191505061129c565b50878787878787879f509f509f509f509f509f509f50505050505050505050919395979092949650565b600080600160009054906101000a900473ffffffffffffffffffffffffffffffffffffffff1690508073ffffffffffffffffffffffffffffffffffffffff166323b872dd3330876040518463ffffffff1660e01b8152600401808473ffffffffffffffffffffffffffffffffffffffff1673ffffffffffffffffffffffffffffffffffffffff1681526020018373ffffffffffffffffffffffffffffffffffffffff1673ffffffffffffffffffffffffffffffffffffffff1681526020018281526020019350505050602060405180830381600087803b15801561164457600080fd5b505af1158015611658573d6000803e3d6000fd5b505050506040513d602081101561166e57600080fd5b810190808051906020019092919050505050836003600082825401925050819055506000600460008861ffff16815260200190815260200160002090508481600301600082825401925050819055506040518060e001604052808260050160029054906101000a900461ffff1661ffff168152602001878152602001868152602001428152602001851515815260200160001515815260200160008152508160060160008360050160029054906101000a900461ffff1661ffff16815260200190815260200160002060008201518160000160006101000a81548161ffff021916908361ffff1602179055506020820151816001019080519060200190611776929190611c4f565b50604082015181600201556060820151816003015560808201518160040160006101000a81548160ff02191690831515021790555060a08201518160040160016101000a81548160ff02191690831515021790555060c0820151816005015590505080600501600281819054906101000a900461ffff168092919060010191906101000a81548161ffff021916908361ffff160217905550506001151584151514156118515780600501600181819054906101000a900460ff168092919060010191906101000a81548160ff021916908360ff160217905550505b600192505050949350505050565b600260009054906101000a900473ffffffffffffffffffffffffffffffffffffffff1681565b611899816000611ab790919063ffffffff16565b8073ffffffffffffffffffffffffffffffffffffffff167f0a8eb35e5ca14b3d6f28e4abf2f128dbab231a58b56e89beb5d636115001e16560405160405180910390a250565b6118f3816000611b7490919063ffffffff16565b8073ffffffffffffffffffffffffffffffffffffffff167f22380c05984257a1cb900161c713dd71d39e74820f1aea43bd3f1bdd2096129960405160405180910390a250565b60008073ffffffffffffffffffffffffffffffffffffffff168273ffffffffffffffffffffffffffffffffffffffff1614156119c0576040517f08c379a0000000000000000000000000000000000000000000000000000000008152600401808060200182810382526022815260200180611d966022913960400191505060405180910390fd5b8260000160008373ffffffffffffffffffffffffffffffffffffffff1673ffffffffffffffffffffffffffffffffffffffff16815260200190815260200160002060009054906101000a900460ff16905092915050565b60006020835181611a2457fe5b04905060006020845181611a3457fe5b061115611a445780806001019150505b60018101905060005b81811015611a71576020810284015185840152602085039450600181019050611a4d565b5050505050565b60006020825181611a8557fe5b04905060006020835181611a9557fe5b0614611aa45780806001019150505b8080600101915050602081029050919050565b611ac18282611939565b611b16576040517f08c379a0000000000000000000000000000000000000000000000000000000008152600401808060200182810382526021815260200180611d756021913960400191505060405180910390fd5b60008260000160008373ffffffffffffffffffffffffffffffffffffffff1673ffffffffffffffffffffffffffffffffffffffff16815260200190815260200160002060006101000a81548160ff0219169083151502179055505050565b611b7e8282611939565b15611bf1576040517f08c379a000000000000000000000000000000000000000000000000000000000815260040180806020018281038252601f8152602001807f526f6c65733a206163636f756e7420616c72656164792068617320726f6c650081525060200191505060405180910390fd5b60018260000160008373ffffffffffffffffffffffffffffffffffffffff1673ffffffffffffffffffffffffffffffffffffffff16815260200190815260200160002060006101000a81548160ff0219169083151502179055505050565b828054600181600116156101000203166002900490600052602060002090601f016020900481019282601f10611c9057805160ff1916838001178555611cbe565b82800160010185558215611cbe579182015b82811115611cbd578251825591602001919060010190611ca2565b5b509050611ccb9190611d4f565b5090565b828054600181600116156101000203166002900490600052602060002090601f016020900481019282601f10611d1057805160ff1916838001178555611d3e565b82800160010185558215611d3e579182015b82811115611d3d578251825591602001919060010190611d22565b5b509050611d4b9190611d4f565b5090565b611d7191905b80821115611d6d576000816000905550600101611d55565b5090565b9056fe526f6c65733a206163636f756e7420646f6573206e6f74206861766520726f6c65526f6c65733a206163636f756e7420697320746865207a65726f206164647265737357686974656c69737441646d696e526f6c653a2063616c6c657220646f6573206e6f742068617665207468652057686974656c69737441646d696e20726f6c65a165627a7a72305820650588588e2e045fdb601a8355d099af811fffa14c66605e9390dfbe8bfed6fc0029526f6c65733a206163636f756e7420697320746865207a65726f2061646472657373",
  "source": "pragma solidity ^0.5.0;\r\n\r\nimport \"@openzeppelin/contracts/access/roles/WhiteListAdminRole.sol\";\r\nimport \"./GiveToken.sol\";\r\n\r\n// Box         .\r\ncontract GiveBox is WhitelistAdminRole {\r\n\r\n    struct Backer {\r\n        uint16 id;\r\n        string name;\r\n        uint amount;\r\n        uint date;\r\n        bool applyTrooper;\r\n        bool isTrooper;\r\n        uint txid;\r\n    }\r\n\r\n    struct Project {\r\n        uint16 id;\r\n        string title;\r\n        uint goal;\r\n        uint fund;\r\n        uint date;\r\n        uint8 trooperSelect;\r\n        uint8 trooperCount;\r\n        uint16 backerCount;\r\n        bool isClosed;\r\n        bool isHidden;\r\n        mapping (uint => Backer) backers;\r\n    }\r\n\r\n    address public tokenContract;   //   \r\n    address public administrator;   //[TODO]   \r\n\r\n    uint16 projectCount = 0;\r\n    uint   totalBalance = 0;        //    \r\n\r\n    mapping (uint => Project) public projects;\r\n\r\n    // -----------------------------------------------\r\n    constructor () public {\r\n        administrator = msg.sender;\r\n    }\r\n\r\n    function addProject(string memory title) public onlyWhitelistAdmin returns(uint id) {\r\n        projects[projectCount] = Project(projectCount, title, 0, 0, now, 0, 0, 0, false, false);\r\n        projectCount++;\r\n        return projects[projectCount].id;\r\n    }\r\n\r\n\r\n    function getProject(uint16 projectId) public view returns(\r\n        uint16 id, string memory title, uint goal, uint fund, uint date,\r\n        uint8 trooperSelect, uint8 trooperCount, uint16 backerCount, bool isClosed, bool isHidden)\r\n    {\r\n        Project storage p = projects[projectId];\r\n        return (p.id, p.title, p.goal, p.fund, p.date, p.trooperSelect, p.trooperCount, p.backerCount, p.isClosed, p.isHidden);\r\n    }\r\n\r\n\r\n    function editProjectTitle(uint16 projectId, string memory title) public onlyWhitelistAdmin {\r\n        projects[projectId].title = title;\r\n    }\r\n\r\n\r\n    function give(uint16 projectId, string memory name, uint256 amount, bool applyTrooper) public returns (bool) {\r\n\r\n        GiveToken token = GiveToken(tokenContract);\r\n        token.transferFrom(msg.sender, address(this), amount);\r\n\r\n        totalBalance += amount;\r\n\r\n        Project storage p = projects[projectId];\r\n\r\n        p.fund += amount;\r\n\r\n        p.backers[p.backerCount] = Backer(p.backerCount, name, amount, now, applyTrooper, false, 0);\r\n        p.backerCount++;\r\n\r\n        if (applyTrooper == true) {\r\n            p.trooperCount++;\r\n        }\r\n\r\n        return true;\r\n    }\r\n\r\n    function getBackers(uint16 projectId) public view returns (\r\n        uint[] memory, uint[] memory, uint[] memory, uint[] memory,\r\n        bool[] memory, bool[] memory, bytes memory) {\r\n\r\n        Project storage p = projects[projectId];\r\n\r\n        uint[] memory id     = new uint[](p.backerCount);\r\n        uint[] memory amount = new uint[](p.backerCount);\r\n        uint[] memory date   = new uint[](p.backerCount);\r\n        uint[] memory txid   = new uint[](p.backerCount);\r\n        bool[] memory applyTrooper = new bool[](p.backerCount);\r\n        bool[] memory isTrooper    = new bool[](p.backerCount);\r\n        bytes  memory nameBuffer   = new bytes(64*p.backerCount);\r\n\r\n        uint offset = 64 * p.backerCount;\r\n\r\n        for (uint16 i = 0; i < p.backerCount; i++) {\r\n            Backer storage backer = p.backers[i];\r\n\r\n            id[i]     = backer.id;\r\n            amount[i] = backer.amount;\r\n            date[i]   = backer.date;\r\n            txid[i]   = backer.txid;\r\n\r\n            applyTrooper[i] = backer.applyTrooper;\r\n            isTrooper[i]    = backer.isTrooper;\r\n\r\n            stringToBytes(offset, bytes(backer.name), nameBuffer);\r\n            offset -= sizeOfString(backer.name);\r\n        }\r\n\r\n        return (id, amount, date, txid, applyTrooper, isTrooper, nameBuffer);\r\n    }\r\n\r\n\r\n    // ---   -----\r\n    function setToken(address _tokenContract) public onlyWhitelistAdmin {\r\n        tokenContract = _tokenContract;\r\n    }\r\n\r\n\r\n    //   \r\n    // From https://github.com/pouladzade/Seriality\r\n    function stringToBytes(uint _offst, bytes memory _input, bytes memory _output) internal pure {\r\n        uint256 stack_size = _input.length / 32;\r\n        if(_input.length % 32 > 0) stack_size++;\r\n\r\n        assembly {\r\n            stack_size := add(stack_size,1)//adding because of 32 first bytes memory as the length\r\n            for { let index := 0 } lt(index,stack_size){ index := add(index ,1) } {\r\n                mstore(add(_output, _offst), mload(add(_input,mul(index,32))))\r\n                _offst := sub(_offst , 32)\r\n            }\r\n        }\r\n    }\r\n\r\n    function sizeOfString(string memory _in) internal pure  returns(uint _size){\r\n        _size = bytes(_in).length / 32;\r\n         if(bytes(_in).length % 32 != 0)  _size++;\r\n        _size++; // first 32 bytes is reserved for the size of the string\r\n        _size *= 32;\r\n    }\r\n\r\n    // End of Seriality --------------------------------\r\n\r\n}\r\n\r\n\r\n\r\n",
  "sourcePath": "C:/WORK/0_luniverse/smart_contract/contracts/GiveBox.sol",
  "compiler": {
    "name": "solc",
    "version": "0.5.8+commit.23d335f2.Emscripten.clang"
  },
  "schemaVersion": "3.0.14",
  "updatedAt": "2019-09-01T23:07:12.263Z",
  "devdoc": {
    "methods": {}
  },
  "userdoc": {
    "methods": {}
  }
}