{
  "contractName": "GiveBox",
  "abi": [
    {
      "constant": true,
      "inputs": [
        {
          "name": "",
          "type": "uint256"
        }
      ],
      "name": "projects",
      "outputs": [
        {
          "name": "id",
          "type": "uint16"
        },
        {
          "name": "title",
          "type": "string"
        },
        {
          "name": "goal",
          "type": "uint256"
        },
        {
          "name": "fund",
          "type": "uint256"
        },
        {
          "name": "date",
          "type": "uint256"
        },
        {
          "name": "trooperSelect",
          "type": "uint8"
        },
        {
          "name": "trooperCount",
          "type": "uint8"
        },
        {
          "name": "backerCount",
          "type": "uint16"
        },
        {
          "name": "reviewCount",
          "type": "uint8"
        },
        {
          "name": "content",
          "type": "string"
        },
        {
          "name": "isClosed",
          "type": "bool"
        }
      ],
      "payable": false,
      "stateMutability": "view",
      "type": "function"
    },
    {
      "constant": false,
      "inputs": [],
      "name": "renounceWhitelistAdmin",
      "outputs": [],
      "payable": false,
      "stateMutability": "nonpayable",
      "type": "function"
    },
    {
      "constant": true,
      "inputs": [
        {
          "name": "",
          "type": "uint256"
        }
      ],
      "name": "projectCloses",
      "outputs": [
        {
          "name": "id",
          "type": "uint256"
        },
        {
          "name": "acceptCount",
          "type": "uint16"
        },
        {
          "name": "claimCount",
          "type": "uint16"
        },
        {
          "name": "content",
          "type": "string"
        }
      ],
      "payable": false,
      "stateMutability": "view",
      "type": "function"
    },
    {
      "constant": true,
      "inputs": [],
      "name": "tokenContract",
      "outputs": [
        {
          "name": "",
          "type": "address"
        }
      ],
      "payable": false,
      "stateMutability": "view",
      "type": "function"
    },
    {
      "constant": false,
      "inputs": [
        {
          "name": "account",
          "type": "address"
        }
      ],
      "name": "addWhitelistAdmin",
      "outputs": [],
      "payable": false,
      "stateMutability": "nonpayable",
      "type": "function"
    },
    {
      "constant": true,
      "inputs": [
        {
          "name": "account",
          "type": "address"
        }
      ],
      "name": "isWhitelistAdmin",
      "outputs": [
        {
          "name": "",
          "type": "bool"
        }
      ],
      "payable": false,
      "stateMutability": "view",
      "type": "function"
    },
    {
      "constant": true,
      "inputs": [],
      "name": "administrator",
      "outputs": [
        {
          "name": "",
          "type": "address"
        }
      ],
      "payable": false,
      "stateMutability": "view",
      "type": "function"
    },
    {
      "inputs": [],
      "payable": false,
      "stateMutability": "nonpayable",
      "type": "constructor"
    },
    {
      "anonymous": false,
      "inputs": [
        {
          "indexed": true,
          "name": "account",
          "type": "address"
        }
      ],
      "name": "WhitelistAdminAdded",
      "type": "event"
    },
    {
      "anonymous": false,
      "inputs": [
        {
          "indexed": true,
          "name": "account",
          "type": "address"
        }
      ],
      "name": "WhitelistAdminRemoved",
      "type": "event"
    },
    {
      "constant": false,
      "inputs": [
        {
          "name": "title",
          "type": "string"
        }
      ],
      "name": "addProject",
      "outputs": [
        {
          "name": "id",
          "type": "uint256"
        }
      ],
      "payable": false,
      "stateMutability": "nonpayable",
      "type": "function"
    },
    {
      "constant": true,
      "inputs": [
        {
          "name": "projectId",
          "type": "uint16"
        }
      ],
      "name": "getProject",
      "outputs": [
        {
          "name": "id",
          "type": "uint16"
        },
        {
          "name": "title",
          "type": "string"
        },
        {
          "name": "goal",
          "type": "uint256"
        },
        {
          "name": "fund",
          "type": "uint256"
        },
        {
          "name": "date",
          "type": "uint256"
        },
        {
          "name": "trooperSelect",
          "type": "uint8"
        },
        {
          "name": "trooperCount",
          "type": "uint8"
        },
        {
          "name": "backerCount",
          "type": "uint16"
        },
        {
          "name": "reviewCount",
          "type": "uint8"
        },
        {
          "name": "isClosed",
          "type": "bool"
        }
      ],
      "payable": false,
      "stateMutability": "view",
      "type": "function"
    },
    {
      "constant": true,
      "inputs": [
        {
          "name": "projectId",
          "type": "uint16"
        }
      ],
      "name": "getProjectContent",
      "outputs": [
        {
          "name": "content",
          "type": "string"
        }
      ],
      "payable": false,
      "stateMutability": "view",
      "type": "function"
    },
    {
      "constant": false,
      "inputs": [
        {
          "name": "projectId",
          "type": "uint16"
        },
        {
          "name": "title",
          "type": "string"
        },
        {
          "name": "content",
          "type": "string"
        }
      ],
      "name": "editProjectContent",
      "outputs": [],
      "payable": false,
      "stateMutability": "nonpayable",
      "type": "function"
    },
    {
      "constant": false,
      "inputs": [
        {
          "name": "projectId",
          "type": "uint16"
        },
        {
          "name": "goal",
          "type": "uint256"
        },
        {
          "name": "date",
          "type": "uint256"
        },
        {
          "name": "trooperSelect",
          "type": "uint8"
        }
      ],
      "name": "editProjectOptions",
      "outputs": [],
      "payable": false,
      "stateMutability": "nonpayable",
      "type": "function"
    },
    {
      "constant": false,
      "inputs": [
        {
          "name": "projectId",
          "type": "uint16"
        },
        {
          "name": "name",
          "type": "string"
        },
        {
          "name": "amount",
          "type": "uint256"
        },
        {
          "name": "applyTrooper",
          "type": "bool"
        }
      ],
      "name": "give",
      "outputs": [
        {
          "name": "",
          "type": "bool"
        }
      ],
      "payable": false,
      "stateMutability": "nonpayable",
      "type": "function"
    },
    {
      "constant": true,
      "inputs": [
        {
          "name": "projectId",
          "type": "uint16"
        }
      ],
      "name": "getBackersAddrs",
      "outputs": [
        {
          "name": "addr",
          "type": "address[]"
        },
        {
          "name": "blockNumber",
          "type": "uint256[]"
        }
      ],
      "payable": false,
      "stateMutability": "view",
      "type": "function"
    },
    {
      "constant": false,
      "inputs": [
        {
          "name": "projectId",
          "type": "uint16"
        },
        {
          "name": "receiver",
          "type": "address"
        }
      ],
      "name": "withdraw",
      "outputs": [],
      "payable": false,
      "stateMutability": "nonpayable",
      "type": "function"
    },
    {
      "constant": true,
      "inputs": [
        {
          "name": "projectId",
          "type": "uint16"
        }
      ],
      "name": "getBackers",
      "outputs": [
        {
          "name": "id",
          "type": "uint256[]"
        },
        {
          "name": "amount",
          "type": "uint256[]"
        },
        {
          "name": "date",
          "type": "uint256[]"
        },
        {
          "name": "blockNumber",
          "type": "uint256[]"
        },
        {
          "name": "aTrooper",
          "type": "bool[]"
        },
        {
          "name": "isTrooper",
          "type": "bool[]"
        },
        {
          "name": "name",
          "type": "bytes"
        }
      ],
      "payable": false,
      "stateMutability": "view",
      "type": "function"
    },
    {
      "constant": false,
      "inputs": [
        {
          "name": "_tokenContract",
          "type": "address"
        }
      ],
      "name": "setToken",
      "outputs": [],
      "payable": false,
      "stateMutability": "nonpayable",
      "type": "function"
    }
  ],
  "bytecode": "0x60806040526000600260146101000a81548161ffff021916908361ffff16021790555060006003553480156200003457600080fd5b5062000046336200008d60201b60201c565b33600260006101000a81548173ffffffffffffffffffffffffffffffffffffffff021916908373ffffffffffffffffffffffffffffffffffffffff160217905550620002b2565b620000a8816000620000ee60201b620027bc1790919060201c565b8073ffffffffffffffffffffffffffffffffffffffff167f22380c05984257a1cb900161c713dd71d39e74820f1aea43bd3f1bdd2096129960405160405180910390a250565b620001008282620001d260201b60201c565b1562000174576040517f08c379a000000000000000000000000000000000000000000000000000000000815260040180806020018281038252601f8152602001807f526f6c65733a206163636f756e7420616c72656164792068617320726f6c650081525060200191505060405180910390fd5b60018260000160008373ffffffffffffffffffffffffffffffffffffffff1673ffffffffffffffffffffffffffffffffffffffff16815260200190815260200160002060006101000a81548160ff0219169083151502179055505050565b60008073ffffffffffffffffffffffffffffffffffffffff168273ffffffffffffffffffffffffffffffffffffffff1614156200025b576040517f08c379a000000000000000000000000000000000000000000000000000000000815260040180806020018281038252602281526020018062002d2d6022913960400191505060405180910390fd5b8260000160008373ffffffffffffffffffffffffffffffffffffffff1673ffffffffffffffffffffffffffffffffffffffff16815260200190815260200160002060009054906101000a900460ff16905092915050565b612a6b80620002c26000396000f3fe608060405234801561001057600080fd5b506004361061010b5760003560e01c806355a373d6116100a2578063d710633a11610071578063d710633a1461077a578063d7b9844b1461088a578063e311f99e14610ae5578063f53d0a8e14610bdc578063f844a51e14610c265761010b565b806355a373d6146105c15780637362d9c81461060b578063b779967f1461064f578063bb5f747b1461071e5761010b565b806332723e31116100de57806332723e31146104465780634314a946146104995780634c5a628c146104eb578063541858b9146104f55761010b565b806302f5351b146101105780630ed047d4146101bb578063107046bd1461028a578063144fa6d714610402575b600080fd5b6101406004803603602081101561012657600080fd5b81019080803561ffff169060200190929190505050610d86565b6040518080602001828103825283818151815260200191508051906020019080838360005b83811015610180578082015181840152602081019050610165565b50505050905090810190601f1680156101ad5780820380516001836020036101000a031916815260200191505b509250505060405180910390f35b610274600480360360208110156101d157600080fd5b81019080803590602001906401000000008111156101ee57600080fd5b82018360208201111561020057600080fd5b8035906020019184600183028401116401000000008311171561022257600080fd5b91908080601f016020809104026020016040519081016040528093929190818152602001838380828437600081840152601f19601f820116905080830192505050505050509192919290505050610e48565b6040518082815260200191505060405180910390f35b6102b6600480360360208110156102a057600080fd5b81019080803590602001909291905050506111d9565b604051808c61ffff1661ffff168152602001806020018b81526020018a81526020018981526020018860ff1660ff1681526020018760ff1660ff1681526020018661ffff1661ffff1681526020018560ff1660ff168152602001806020018415151515815260200183810383528d818151815260200191508051906020019080838360005b8381101561035657808201518184015260208101905061033b565b50505050905090810190601f1680156103835780820380516001836020036101000a031916815260200191505b50838103825285818151815260200191508051906020019080838360005b838110156103bc5780820151818401526020810190506103a1565b50505050905090810190601f1680156103e95780820380516001836020036101000a031916815260200191505b509d505050505050505050505050505060405180910390f35b6104446004803603602081101561041857600080fd5b81019080803573ffffffffffffffffffffffffffffffffffffffff1690602001909291905050506113b3565b005b6104976004803603608081101561045c57600080fd5b81019080803561ffff1690602001909291908035906020019092919080359060200190929190803560ff169060200190929190505050611455565b005b6104e9600480360360408110156104af57600080fd5b81019080803561ffff169060200190929190803573ffffffffffffffffffffffffffffffffffffffff16906020019092919050505061152a565b005b6104f3611697565b005b6105216004803603602081101561050b57600080fd5b81019080803590602001909291905050506116a2565b604051808581526020018461ffff1661ffff1681526020018361ffff1661ffff16815260200180602001828103825283818151815260200191508051906020019080838360005b83811015610583578082015181840152602081019050610568565b50505050905090810190601f1680156105b05780820380516001836020036101000a031916815260200191505b509550505050505060405180910390f35b6105c9611786565b604051808273ffffffffffffffffffffffffffffffffffffffff1673ffffffffffffffffffffffffffffffffffffffff16815260200191505060405180910390f35b61064d6004803603602081101561062157600080fd5b81019080803573ffffffffffffffffffffffffffffffffffffffff1690602001909291905050506117ac565b005b61067f6004803603602081101561066557600080fd5b81019080803561ffff169060200190929190505050611816565b604051808060200180602001838103835285818151815260200191508051906020019060200280838360005b838110156106c65780820151818401526020810190506106ab565b50505050905001838103825284818151815260200191508051906020019060200280838360005b838110156107085780820151818401526020810190506106ed565b5050505090500194505050505060405180910390f35b6107606004803603602081101561073457600080fd5b81019080803573ffffffffffffffffffffffffffffffffffffffff1690602001909291905050506119b8565b604051808215151515815260200191505060405180910390f35b6107aa6004803603602081101561079057600080fd5b81019080803561ffff1690602001909291905050506119d5565b604051808b61ffff1661ffff168152602001806020018a81526020018981526020018881526020018760ff1660ff1681526020018660ff1660ff1681526020018561ffff1661ffff1681526020018460ff1660ff1681526020018315151515815260200182810382528b818151815260200191508051906020019080838360005b8381101561084657808201518184015260208101905061082b565b50505050905090810190601f1680156108735780820380516001836020036101000a031916815260200191505b509b50505050505050505050505060405180910390f35b6108ba600480360360208110156108a057600080fd5b81019080803561ffff169060200190929190505050611b3f565b604051808060200180602001806020018060200180602001806020018060200188810388528f818151815260200191508051906020019060200280838360005b838110156109155780820151818401526020810190506108fa565b5050505090500188810387528e818151815260200191508051906020019060200280838360005b8381101561095757808201518184015260208101905061093c565b5050505090500188810386528d818151815260200191508051906020019060200280838360005b8381101561099957808201518184015260208101905061097e565b5050505090500188810385528c818151815260200191508051906020019060200280838360005b838110156109db5780820151818401526020810190506109c0565b5050505090500188810384528b818151815260200191508051906020019060200280838360005b83811015610a1d578082015181840152602081019050610a02565b5050505090500188810383528a818151815260200191508051906020019060200280838360005b83811015610a5f578082015181840152602081019050610a44565b50505050905001888103825289818151815260200191508051906020019080838360005b83811015610a9e578082015181840152602081019050610a83565b50505050905090810190601f168015610acb5780820380516001836020036101000a031916815260200191505b509e50505050505050505050505050505060405180910390f35b610bc260048036036080811015610afb57600080fd5b81019080803561ffff16906020019092919080359060200190640100000000811115610b2657600080fd5b820183602082011115610b3857600080fd5b80359060200191846001830284011164010000000083111715610b5a57600080fd5b91908080601f016020809104026020016040519081016040528093929190818152602001838380828437600081840152601f19601f8201169050808301925050505050505091929192908035906020019092919080351515906020019092919050505061205b565b604051808215151515815260200191505060405180910390f35b610be46123e6565b604051808273ffffffffffffffffffffffffffffffffffffffff1673ffffffffffffffffffffffffffffffffffffffff16815260200191505060405180910390f35b610d8460048036036060811015610c3c57600080fd5b81019080803561ffff16906020019092919080359060200190640100000000811115610c6757600080fd5b820183602082011115610c7957600080fd5b80359060200191846001830284011164010000000083111715610c9b57600080fd5b91908080601f016020809104026020016040519081016040528093929190818152602001838380828437600081840152601f19601f82011690508083019250505050505050919291929080359060200190640100000000811115610cfe57600080fd5b820183602082011115610d1057600080fd5b80359060200191846001830284011164010000000083111715610d3257600080fd5b91908080601f016020809104026020016040519081016040528093929190818152602001838380828437600081840152601f19601f82011690508083019250505050505050919291929050505061240c565b005b60606000600460008461ffff1681526020019081526020016000209050806006018054600181600116156101000203166002900480601f016020809104026020016040519081016040528092919081815260200182805460018160011615610100020316600290048015610e3b5780601f10610e1057610100808354040283529160200191610e3b565b820191906000526020600020905b815481529060010190602001808311610e1e57829003601f168201915b5050505050915050919050565b6000610e53336119b8565b610ea8576040517f08c379a0000000000000000000000000000000000000000000000000000000008152600401808060200182810382526040815260200180612a006040913960400191505060405180910390fd5b604051806101600160405280600260149054906101000a900461ffff1661ffff1681526020018381526020016000815260200160008152602001428152602001600060ff168152602001600060ff168152602001600061ffff168152602001600060ff1681526020016040518060200160405280600081525081526020016000151581525060046000600260149054906101000a900461ffff1661ffff16815260200190815260200160002060008201518160000160006101000a81548161ffff021916908361ffff1602179055506020820151816001019080519060200190610f93929190612897565b5060408201518160020155606082015181600301556080820151816004015560a08201518160050160006101000a81548160ff021916908360ff16021790555060c08201518160050160016101000a81548160ff021916908360ff16021790555060e08201518160050160026101000a81548161ffff021916908361ffff1602179055506101008201518160050160046101000a81548160ff021916908360ff160217905550610120820151816006019080519060200190611056929190612897565b506101408201518160070160006101000a81548160ff0219169083151502179055509050506040518060800160405280600260149054906101000a900461ffff1661ffff168152602001600061ffff168152602001600061ffff1681526020016040518060200160405280600081525081525060056000600260149054906101000a900461ffff1661ffff1681526020019081526020016000206000820151816000015560208201518160010160006101000a81548161ffff021916908361ffff16021790555060408201518160010160026101000a81548161ffff021916908361ffff160217905550606082015181600201908051906020019061115c929190612897565b509050506002601481819054906101000a900461ffff168092919060010191906101000a81548161ffff021916908361ffff1602179055505060046000600260149054906101000a900461ffff1661ffff16815260200190815260200160002060000160009054906101000a900461ffff1661ffff169050919050565b60046020528060005260406000206000915090508060000160009054906101000a900461ffff1690806001018054600181600116156101000203166002900480601f0160208091040260200160405190810160405280929190818152602001828054600181600116156101000203166002900480156112995780601f1061126e57610100808354040283529160200191611299565b820191906000526020600020905b81548152906001019060200180831161127c57829003601f168201915b5050505050908060020154908060030154908060040154908060050160009054906101000a900460ff16908060050160019054906101000a900460ff16908060050160029054906101000a900461ffff16908060050160049054906101000a900460ff1690806006018054600181600116156101000203166002900480601f0160208091040260200160405190810160405280929190818152602001828054600181600116156101000203166002900480156113965780601f1061136b57610100808354040283529160200191611396565b820191906000526020600020905b81548152906001019060200180831161137957829003601f168201915b5050505050908060070160009054906101000a900460ff1690508b565b6113bc336119b8565b611411576040517f08c379a0000000000000000000000000000000000000000000000000000000008152600401808060200182810382526040815260200180612a006040913960400191505060405180910390fd5b80600160006101000a81548173ffffffffffffffffffffffffffffffffffffffff021916908373ffffffffffffffffffffffffffffffffffffffff16021790555050565b61145e336119b8565b6114b3576040517f08c379a0000000000000000000000000000000000000000000000000000000008152600401808060200182810382526040815260200180612a006040913960400191505060405180910390fd5b82600460008661ffff1681526020019081526020016000206002018190555081600460008661ffff1681526020019081526020016000206004018190555080600460008661ffff16815260200190815260200160002060050160006101000a81548160ff021916908360ff16021790555050505050565b611533336119b8565b611588576040517f08c379a0000000000000000000000000000000000000000000000000000000008152600401808060200182810382526040815260200180612a006040913960400191505060405180910390fd5b6000600160009054906101000a900473ffffffffffffffffffffffffffffffffffffffff1690506000600460008561ffff16815260200190815260200160002090508173ffffffffffffffffffffffffffffffffffffffff1663a9059cbb8483600301546040518363ffffffff1660e01b8152600401808373ffffffffffffffffffffffffffffffffffffffff1673ffffffffffffffffffffffffffffffffffffffff16815260200182815260200192505050602060405180830381600087803b15801561165557600080fd5b505af1158015611669573d6000803e3d6000fd5b505050506040513d602081101561167f57600080fd5b81019080805190602001909291905050505050505050565b6116a0336124cd565b565b60056020528060005260406000206000915090508060000154908060010160009054906101000a900461ffff16908060010160029054906101000a900461ffff1690806002018054600181600116156101000203166002900480601f01602080910402602001604051908101604052809291908181526020018280546001816001161561010002031660029004801561177c5780601f106117515761010080835404028352916020019161177c565b820191906000526020600020905b81548152906001019060200180831161175f57829003601f168201915b5050505050905084565b600160009054906101000a900473ffffffffffffffffffffffffffffffffffffffff1681565b6117b5336119b8565b61180a576040517f08c379a0000000000000000000000000000000000000000000000000000000008152600401808060200182810382526040815260200180612a006040913960400191505060405180910390fd5b61181381612527565b50565b6060806000600460008561ffff168152602001908152602001600020905060608160050160029054906101000a900461ffff1661ffff1660405190808252806020026020018201604052801561187b5781602001602082028038833980820191505090505b50905060608260050160029054906101000a900461ffff1661ffff166040519080825280602002602001820160405280156118c55781602001602082028038833980820191505090505b50905060008090505b8360050160029054906101000a900461ffff1661ffff168110156119a95783600801600082815260200190815260200160002060060160009054906101000a900473ffffffffffffffffffffffffffffffffffffffff1683828151811061193157fe5b602002602001019073ffffffffffffffffffffffffffffffffffffffff16908173ffffffffffffffffffffffffffffffffffffffff16815250508360080160008281526020019081526020016000206005015482828151811061199057fe5b60200260200101818152505080806001019150506118ce565b50818194509450505050915091565b60006119ce82600061258190919063ffffffff16565b9050919050565b600060606000806000806000806000806000600460008d61ffff16815260200190815260200160002090508060000160009054906101000a900461ffff16816001018260020154836003015484600401548560050160009054906101000a900460ff168660050160019054906101000a900460ff168760050160029054906101000a900461ffff168860050160049054906101000a900460ff168960070160009054906101000a900460ff16888054600181600116156101000203166002900480601f016020809104026020016040519081016040528092919081815260200182805460018160011615610100020316600290048015611b165780601f10611aeb57610100808354040283529160200191611b16565b820191906000526020600020905b815481529060010190602001808311611af957829003601f168201915b505050505098509a509a509a509a509a509a509a509a509a509a50509193959799509193959799565b60608060608060608060606000600460008a61ffff168152602001908152602001600020905060608160050160029054906101000a900461ffff1661ffff16604051908082528060200260200182016040528015611bac5781602001602082028038833980820191505090505b50905060608260050160029054906101000a900461ffff1661ffff16604051908082528060200260200182016040528015611bf65781602001602082028038833980820191505090505b50905060608360050160029054906101000a900461ffff1661ffff16604051908082528060200260200182016040528015611c405781602001602082028038833980820191505090505b50905060608460050160029054906101000a900461ffff1661ffff16604051908082528060200260200182016040528015611c8a5781602001602082028038833980820191505090505b50905060608560050160029054906101000a900461ffff1661ffff16604051908082528060200260200182016040528015611cd45781602001602082028038833980820191505090505b50905060608660050160029054906101000a900461ffff1661ffff16604051908082528060200260200182016040528015611d1e5781602001602082028038833980820191505090505b50905060608760050160029054906101000a900461ffff1660400261ffff166040519080825280601f01601f191660200182016040528015611d6f5781602001600182028038833980820191505090505b50905060008860050160029054906101000a900461ffff1660400261ffff16905060008090505b8960050160029054906101000a900461ffff1661ffff168161ffff1610156120315760008a60080160008361ffff16815260200190815260200160002090508060000160009054906101000a900461ffff1661ffff168a8361ffff1681518110611dfc57fe5b6020026020010181815250508060020154898361ffff1681518110611e1d57fe5b6020026020010181815250508060030154888361ffff1681518110611e3e57fe5b6020026020010181815250508060050154878361ffff1681518110611e5f57fe5b6020026020010181815250508060040160009054906101000a900460ff16868361ffff1681518110611e8d57fe5b6020026020010190151590811515815250508060040160019054906101000a900460ff16858361ffff1681518110611ec157fe5b602002602001019015159081151581525050611f7a83826001018054600181600116156101000203166002900480601f016020809104026020016040519081016040528092919081815260200182805460018160011615610100020316600290048015611f6f5780601f10611f4457610100808354040283529160200191611f6f565b820191906000526020600020905b815481529060010190602001808311611f5257829003601f168201915b50505050508661265f565b61201f816001018054600181600116156101000203166002900480601f0160208091040260200160405190810160405280929190818152602001828054600181600116156101000203166002900480156120155780601f10611fea57610100808354040283529160200191612015565b820191906000526020600020905b815481529060010190602001808311611ff857829003601f168201915b50505050506126c0565b83039250508080600101915050611d96565b50878787878787879f509f509f509f509f509f509f50505050505050505050919395979092949650565b600080600160009054906101000a900473ffffffffffffffffffffffffffffffffffffffff1690508073ffffffffffffffffffffffffffffffffffffffff166323b872dd3330876040518463ffffffff1660e01b8152600401808473ffffffffffffffffffffffffffffffffffffffff1673ffffffffffffffffffffffffffffffffffffffff1681526020018373ffffffffffffffffffffffffffffffffffffffff1673ffffffffffffffffffffffffffffffffffffffff1681526020018281526020019350505050602060405180830381600087803b15801561213e57600080fd5b505af1158015612152573d6000803e3d6000fd5b505050506040513d602081101561216857600080fd5b810190808051906020019092919050505050836003600082825401925050819055506000600460008861ffff16815260200190815260200160002090508481600301600082825401925050819055506040518061012001604052808260050160029054906101000a900461ffff1661ffff16815260200187815260200186815260200142815260200185151581526020016000151581526020016000151581526020014381526020013373ffffffffffffffffffffffffffffffffffffffff168152508160080160008360050160029054906101000a900461ffff1661ffff16815260200190815260200160002060008201518160000160006101000a81548161ffff021916908361ffff1602179055506020820151816001019080519060200190612295929190612897565b50604082015181600201556060820151816003015560808201518160040160006101000a81548160ff02191690831515021790555060a08201518160040160016101000a81548160ff02191690831515021790555060c08201518160040160026101000a81548160ff02191690831515021790555060e082015181600501556101008201518160060160006101000a81548173ffffffffffffffffffffffffffffffffffffffff021916908373ffffffffffffffffffffffffffffffffffffffff16021790555090505080600501600281819054906101000a900461ffff168092919060010191906101000a81548161ffff021916908361ffff160217905550506001151584151514156123d85780600501600181819054906101000a900460ff168092919060010191906101000a81548160ff021916908360ff160217905550505b600192505050949350505050565b600260009054906101000a900473ffffffffffffffffffffffffffffffffffffffff1681565b612415336119b8565b61246a576040517f08c379a0000000000000000000000000000000000000000000000000000000008152600401808060200182810382526040815260200180612a006040913960400191505060405180910390fd5b81600460008561ffff1681526020019081526020016000206001019080519060200190612498929190612917565b5080600460008561ffff16815260200190815260200160002060060190805190602001906124c7929190612917565b50505050565b6124e18160006126ff90919063ffffffff16565b8073ffffffffffffffffffffffffffffffffffffffff167f0a8eb35e5ca14b3d6f28e4abf2f128dbab231a58b56e89beb5d636115001e16560405160405180910390a250565b61253b8160006127bc90919063ffffffff16565b8073ffffffffffffffffffffffffffffffffffffffff167f22380c05984257a1cb900161c713dd71d39e74820f1aea43bd3f1bdd2096129960405160405180910390a250565b60008073ffffffffffffffffffffffffffffffffffffffff168273ffffffffffffffffffffffffffffffffffffffff161415612608576040517f08c379a00000000000000000000000000000000000000000000000000000000081526004018080602001828103825260228152602001806129de6022913960400191505060405180910390fd5b8260000160008373ffffffffffffffffffffffffffffffffffffffff1673ffffffffffffffffffffffffffffffffffffffff16815260200190815260200160002060009054906101000a900460ff16905092915050565b6000602083518161266c57fe5b0490506000602084518161267c57fe5b06111561268c5780806001019150505b60018101905060005b818110156126b9576020810284015185840152602085039450600181019050612695565b5050505050565b600060208251816126cd57fe5b049050600060208351816126dd57fe5b06146126ec5780806001019150505b8080600101915050602081029050919050565b6127098282612581565b61275e576040517f08c379a00000000000000000000000000000000000000000000000000000000081526004018080602001828103825260218152602001806129bd6021913960400191505060405180910390fd5b60008260000160008373ffffffffffffffffffffffffffffffffffffffff1673ffffffffffffffffffffffffffffffffffffffff16815260200190815260200160002060006101000a81548160ff0219169083151502179055505050565b6127c68282612581565b15612839576040517f08c379a000000000000000000000000000000000000000000000000000000000815260040180806020018281038252601f8152602001807f526f6c65733a206163636f756e7420616c72656164792068617320726f6c650081525060200191505060405180910390fd5b60018260000160008373ffffffffffffffffffffffffffffffffffffffff1673ffffffffffffffffffffffffffffffffffffffff16815260200190815260200160002060006101000a81548160ff0219169083151502179055505050565b828054600181600116156101000203166002900490600052602060002090601f016020900481019282601f106128d857805160ff1916838001178555612906565b82800160010185558215612906579182015b828111156129055782518255916020019190600101906128ea565b5b5090506129139190612997565b5090565b828054600181600116156101000203166002900490600052602060002090601f016020900481019282601f1061295857805160ff1916838001178555612986565b82800160010185558215612986579182015b8281111561298557825182559160200191906001019061296a565b5b5090506129939190612997565b5090565b6129b991905b808211156129b557600081600090555060010161299d565b5090565b9056fe526f6c65733a206163636f756e7420646f6573206e6f74206861766520726f6c65526f6c65733a206163636f756e7420697320746865207a65726f206164647265737357686974656c69737441646d696e526f6c653a2063616c6c657220646f6573206e6f742068617665207468652057686974656c69737441646d696e20726f6c65a165627a7a72305820fec7c045a3d8c7e4695fa201cd59c545118d679134a58a6a742ead080f0155c40029526f6c65733a206163636f756e7420697320746865207a65726f2061646472657373",
  "source": "pragma solidity ^0.5.0;\r\n\r\nimport \"@openzeppelin/contracts/access/roles/WhiteListAdminRole.sol\";\r\nimport \"./GiveToken.sol\";\r\n\r\n// Box         .\r\ncontract GiveBox is WhitelistAdminRole {\r\n\r\n    struct Review {\r\n        uint16 id;\r\n        string author;\r\n        string content;\r\n        address sender;\r\n        uint date;\r\n    }\r\n\r\n    struct Backer {\r\n        uint16  id;\r\n        string  name;\r\n        uint    amount;\r\n        uint    date;\r\n        bool    applyTrooper;\r\n        bool    isTrooper;\r\n        bool    voted;\r\n        uint    blockNumber;\r\n        address addr;\r\n    }\r\n\r\n    struct Project {\r\n        uint16 id;\r\n        string title;\r\n        uint   goal;\r\n        uint   fund;\r\n        uint   date;\r\n        uint8  trooperSelect;\r\n        uint8  trooperCount;\r\n\r\n        uint16 backerCount;\r\n        uint8 reviewCount;\r\n\r\n        string content;\r\n\r\n        bool isClosed;\r\n        mapping (uint => Backer) backers;\r\n        mapping (uint => Review) reviews;\r\n    }\r\n\r\n    struct ProjectClosing {\r\n        uint id;\r\n        uint16 acceptCount;\r\n        uint16 claimCount;\r\n        string content;\r\n    }\r\n\r\n    address public tokenContract;   //   \r\n    address public administrator;   // [TODO]   \r\n\r\n    uint16 projectCount = 0;\r\n    uint   totalBalance = 0;        //    \r\n\r\n    mapping (uint => Project) public projects;\r\n    mapping (uint => ProjectClosing) public projectCloses;\r\n\r\n    // -----------------------------------------------\r\n    constructor () public {\r\n        administrator = msg.sender;\r\n    }\r\n\r\n    //  \r\n    function addProject(string memory title) public onlyWhitelistAdmin returns(uint id) {\r\n        projects[projectCount] = Project(projectCount, title, 0, 0, now, 0, 0, 0, 0, '', false);\r\n        projectCloses[projectCount] = ProjectClosing(projectCount, 0,0, '');\r\n        projectCount++;\r\n\r\n        return projects[projectCount].id;\r\n    }\r\n\r\n    //   \r\n    function getProject(uint16 projectId) public view returns(\r\n        uint16 id, string memory title, uint goal, uint fund, uint date,\r\n        uint8 trooperSelect, uint8 trooperCount, uint16 backerCount, uint8 reviewCount, bool isClosed)\r\n    {\r\n        Project storage p = projects[projectId];\r\n        return (p.id, p.title, p.goal, p.fund, p.date, p.trooperSelect, p.trooperCount, p.backerCount, p.reviewCount, p.isClosed);\r\n    }\r\n\r\n    //  \r\n    function getProjectContent(uint16 projectId) public view returns(string memory content) {\r\n        Project storage p = projects[projectId];\r\n        return (p.content);\r\n    }\r\n\r\n    //   \r\n    function editProjectContent(uint16 projectId, string memory title, string memory content) public onlyWhitelistAdmin {\r\n        projects[projectId].title = title;\r\n        projects[projectId].content = content;\r\n    }\r\n\r\n    //   \r\n    function editProjectOptions(uint16 projectId, uint goal, uint date, uint8 trooperSelect) public onlyWhitelistAdmin {\r\n        projects[projectId].goal = goal;\r\n        projects[projectId].date = date;\r\n        projects[projectId].trooperSelect = trooperSelect;\r\n    }\r\n\r\n    //  \r\n    function give(uint16 projectId, string memory name, uint256 amount, bool applyTrooper) public returns (bool) {\r\n\r\n        //   .\r\n        GiveToken token = GiveToken(tokenContract);\r\n        token.transferFrom(msg.sender, address(this), amount);\r\n\r\n        totalBalance += amount;\r\n\r\n        //   .\r\n        Project storage p = projects[projectId];\r\n\r\n        p.fund += amount;\r\n\r\n        p.backers[p.backerCount] = Backer(p.backerCount, name, amount, now, applyTrooper, false, false, block.number, msg.sender);\r\n        p.backerCount++;\r\n\r\n        if (applyTrooper == true) {\r\n            p.trooperCount++;\r\n        }\r\n\r\n        return true;\r\n    }\r\n\r\n    function getBackersAddrs(uint16 projectId) public view returns (address[] memory addr, uint[] memory blockNumber) {\r\n\r\n        Project storage p = projects[projectId];\r\n\r\n        address[] memory bArray = new address[](p.backerCount);\r\n        uint[] memory uArray = new uint[](p.backerCount);\r\n\r\n        for (uint i = 0; i < p.backerCount; i++) {\r\n            bArray[i] = p.backers[i].addr;\r\n            uArray[i] = p.backers[i].blockNumber;\r\n        }\r\n\r\n        return (bArray,uArray);\r\n    }\r\n\r\n    function withdraw(uint16 projectId, address receiver) public onlyWhitelistAdmin {\r\n        GiveToken token = GiveToken(tokenContract);\r\n\r\n        Project storage p = projects[projectId];\r\n        token.transfer(receiver, p.fund);\r\n    }\r\n\r\n    function getBackers(uint16 projectId) public view returns (\r\n        uint[] memory id, uint[] memory amount, uint[] memory date, uint[] memory blockNumber,\r\n        bool[] memory aTrooper, bool[] memory isTrooper, bytes memory name) {\r\n\r\n        Project storage p = projects[projectId];\r\n\r\n        uint[] memory _id     = new uint[](p.backerCount);\r\n        uint[] memory _amount = new uint[](p.backerCount);\r\n        uint[] memory _date   = new uint[](p.backerCount);\r\n        uint[] memory _blockNumber  = new uint[](p.backerCount);\r\n        bool[] memory _applyTrooper = new bool[](p.backerCount);\r\n        bool[] memory _isTrooper    = new bool[](p.backerCount);        \r\n        bytes  memory nameBuffer   = new bytes(64*p.backerCount);\r\n\r\n        uint offset = 64 * p.backerCount;\r\n\r\n        for (uint16 i = 0; i < p.backerCount; i++) {\r\n            Backer storage backer = p.backers[i];\r\n\r\n            _id[i]     = backer.id;\r\n            _amount[i] = backer.amount;\r\n            _date[i]   = backer.date;\r\n            _blockNumber[i]  = backer.blockNumber;\r\n\r\n            _applyTrooper[i] = backer.applyTrooper;\r\n            _isTrooper[i]    = backer.isTrooper;\r\n\r\n            stringToBytes(offset, bytes(backer.name), nameBuffer);\r\n            offset -= sizeOfString(backer.name);\r\n        }\r\n\r\n        return (_id, _amount, _date, _blockNumber, _applyTrooper, _isTrooper, nameBuffer);\r\n    }\r\n\r\n    //      \r\n    function setToken(address _tokenContract) public onlyWhitelistAdmin {\r\n        tokenContract = _tokenContract;\r\n    }\r\n\r\n\r\n    //   \r\n    // From https://github.com/pouladzade/Seriality\r\n    function stringToBytes(uint _offst, bytes memory _input, bytes memory _output) internal pure {\r\n        uint256 stack_size = _input.length / 32;\r\n        if(_input.length % 32 > 0) stack_size++;\r\n\r\n        assembly {\r\n            stack_size := add(stack_size,1)//adding because of 32 first bytes memory as the length\r\n            for { let index := 0 } lt(index,stack_size){ index := add(index ,1) } {\r\n                mstore(add(_output, _offst), mload(add(_input,mul(index,32))))\r\n                _offst := sub(_offst , 32)\r\n            }\r\n        }\r\n    }\r\n\r\n    function sizeOfString(string memory _in) internal pure  returns(uint _size){\r\n        _size = bytes(_in).length / 32;\r\n         if(bytes(_in).length % 32 != 0)  _size++;\r\n        _size++; // first 32 bytes is reserved for the size of the string\r\n        _size *= 32;\r\n    }\r\n\r\n    // End of Seriality --------------------------------\r\n\r\n}\r\n\r\n\r\n\r\n",
  "sourcePath": "C:/WORK/UDC-2019-Hackathon/smart_contract/contracts/GiveBox.sol",
  "compiler": {
    "name": "solc",
    "version": "0.5.8+commit.23d335f2.Emscripten.clang"
  },
  "schemaVersion": "3.0.14",
  "updatedAt": "2019-09-04T08:08:03.595Z",
  "devdoc": {
    "methods": {}
  },
  "userdoc": {
    "methods": {}
  }
}