{
  "contractName": "GiveBox",
  "abi": [
    {
      "constant": true,
      "inputs": [
        {
          "name": "",
          "type": "uint256"
        }
      ],
      "name": "projects",
      "outputs": [
        {
          "name": "id",
          "type": "uint16"
        },
        {
          "name": "title",
          "type": "string"
        },
        {
          "name": "goal",
          "type": "uint256"
        },
        {
          "name": "fund",
          "type": "uint256"
        },
        {
          "name": "date",
          "type": "uint256"
        },
        {
          "name": "trooperSelect",
          "type": "uint8"
        },
        {
          "name": "trooperCount",
          "type": "uint8"
        },
        {
          "name": "backerCount",
          "type": "uint16"
        },
        {
          "name": "reviewCount",
          "type": "uint8"
        },
        {
          "name": "content",
          "type": "string"
        },
        {
          "name": "isClosed",
          "type": "bool"
        }
      ],
      "payable": false,
      "stateMutability": "view",
      "type": "function"
    },
    {
      "constant": true,
      "inputs": [],
      "name": "projectCount",
      "outputs": [
        {
          "name": "",
          "type": "uint16"
        }
      ],
      "payable": false,
      "stateMutability": "view",
      "type": "function"
    },
    {
      "constant": false,
      "inputs": [],
      "name": "renounceWhitelistAdmin",
      "outputs": [],
      "payable": false,
      "stateMutability": "nonpayable",
      "type": "function"
    },
    {
      "constant": true,
      "inputs": [
        {
          "name": "",
          "type": "uint256"
        }
      ],
      "name": "projectCloses",
      "outputs": [
        {
          "name": "id",
          "type": "uint256"
        },
        {
          "name": "acceptCount",
          "type": "uint16"
        },
        {
          "name": "claimCount",
          "type": "uint16"
        },
        {
          "name": "content",
          "type": "string"
        },
        {
          "name": "withdraw",
          "type": "address"
        }
      ],
      "payable": false,
      "stateMutability": "view",
      "type": "function"
    },
    {
      "constant": true,
      "inputs": [],
      "name": "tokenContract",
      "outputs": [
        {
          "name": "",
          "type": "address"
        }
      ],
      "payable": false,
      "stateMutability": "view",
      "type": "function"
    },
    {
      "constant": false,
      "inputs": [
        {
          "name": "account",
          "type": "address"
        }
      ],
      "name": "addWhitelistAdmin",
      "outputs": [],
      "payable": false,
      "stateMutability": "nonpayable",
      "type": "function"
    },
    {
      "constant": true,
      "inputs": [],
      "name": "totalBalance",
      "outputs": [
        {
          "name": "",
          "type": "uint256"
        }
      ],
      "payable": false,
      "stateMutability": "view",
      "type": "function"
    },
    {
      "constant": true,
      "inputs": [
        {
          "name": "account",
          "type": "address"
        }
      ],
      "name": "isWhitelistAdmin",
      "outputs": [
        {
          "name": "",
          "type": "bool"
        }
      ],
      "payable": false,
      "stateMutability": "view",
      "type": "function"
    },
    {
      "constant": true,
      "inputs": [],
      "name": "administrator",
      "outputs": [
        {
          "name": "",
          "type": "address"
        }
      ],
      "payable": false,
      "stateMutability": "view",
      "type": "function"
    },
    {
      "inputs": [],
      "payable": false,
      "stateMutability": "nonpayable",
      "type": "constructor"
    },
    {
      "anonymous": false,
      "inputs": [
        {
          "indexed": true,
          "name": "account",
          "type": "address"
        }
      ],
      "name": "WhitelistAdminAdded",
      "type": "event"
    },
    {
      "anonymous": false,
      "inputs": [
        {
          "indexed": true,
          "name": "account",
          "type": "address"
        }
      ],
      "name": "WhitelistAdminRemoved",
      "type": "event"
    },
    {
      "constant": false,
      "inputs": [
        {
          "name": "title",
          "type": "string"
        }
      ],
      "name": "addProject",
      "outputs": [
        {
          "name": "id",
          "type": "uint256"
        }
      ],
      "payable": false,
      "stateMutability": "nonpayable",
      "type": "function"
    },
    {
      "constant": true,
      "inputs": [
        {
          "name": "projectId",
          "type": "uint16"
        }
      ],
      "name": "getProject",
      "outputs": [
        {
          "name": "id",
          "type": "uint16"
        },
        {
          "name": "title",
          "type": "string"
        },
        {
          "name": "goal",
          "type": "uint256"
        },
        {
          "name": "fund",
          "type": "uint256"
        },
        {
          "name": "date",
          "type": "uint256"
        },
        {
          "name": "trooperSelect",
          "type": "uint8"
        },
        {
          "name": "trooperCount",
          "type": "uint8"
        },
        {
          "name": "backerCount",
          "type": "uint16"
        },
        {
          "name": "reviewCount",
          "type": "uint8"
        },
        {
          "name": "isClosed",
          "type": "bool"
        }
      ],
      "payable": false,
      "stateMutability": "view",
      "type": "function"
    },
    {
      "constant": true,
      "inputs": [
        {
          "name": "projectId",
          "type": "uint16"
        }
      ],
      "name": "getProjectContent",
      "outputs": [
        {
          "name": "content",
          "type": "string"
        }
      ],
      "payable": false,
      "stateMutability": "view",
      "type": "function"
    },
    {
      "constant": false,
      "inputs": [
        {
          "name": "projectId",
          "type": "uint16"
        },
        {
          "name": "title",
          "type": "string"
        },
        {
          "name": "content",
          "type": "string"
        }
      ],
      "name": "editProjectContent",
      "outputs": [],
      "payable": false,
      "stateMutability": "nonpayable",
      "type": "function"
    },
    {
      "constant": false,
      "inputs": [
        {
          "name": "projectId",
          "type": "uint16"
        },
        {
          "name": "goal",
          "type": "uint256"
        },
        {
          "name": "date",
          "type": "uint256"
        },
        {
          "name": "trooperSelect",
          "type": "uint8"
        }
      ],
      "name": "editProjectOptions",
      "outputs": [],
      "payable": false,
      "stateMutability": "nonpayable",
      "type": "function"
    },
    {
      "constant": false,
      "inputs": [
        {
          "name": "projectId",
          "type": "uint16"
        },
        {
          "name": "name",
          "type": "string"
        },
        {
          "name": "amount",
          "type": "uint256"
        },
        {
          "name": "applyTrooper",
          "type": "bool"
        }
      ],
      "name": "give",
      "outputs": [
        {
          "name": "",
          "type": "bool"
        }
      ],
      "payable": false,
      "stateMutability": "nonpayable",
      "type": "function"
    },
    {
      "constant": false,
      "inputs": [
        {
          "name": "projectId",
          "type": "uint16"
        },
        {
          "name": "isAccept",
          "type": "bool"
        }
      ],
      "name": "vote",
      "outputs": [],
      "payable": false,
      "stateMutability": "nonpayable",
      "type": "function"
    },
    {
      "constant": true,
      "inputs": [
        {
          "name": "projectId",
          "type": "uint16"
        },
        {
          "name": "backerAddr",
          "type": "address"
        }
      ],
      "name": "isBackerVoted",
      "outputs": [
        {
          "name": "voted",
          "type": "bool"
        }
      ],
      "payable": false,
      "stateMutability": "view",
      "type": "function"
    },
    {
      "constant": true,
      "inputs": [
        {
          "name": "projectId",
          "type": "uint16"
        }
      ],
      "name": "getBackersAddrs",
      "outputs": [
        {
          "name": "addr",
          "type": "address[]"
        },
        {
          "name": "blockNumber",
          "type": "uint256[]"
        }
      ],
      "payable": false,
      "stateMutability": "view",
      "type": "function"
    },
    {
      "constant": false,
      "inputs": [
        {
          "name": "projectId",
          "type": "uint16"
        },
        {
          "name": "content",
          "type": "string"
        },
        {
          "name": "receiver",
          "type": "address"
        }
      ],
      "name": "withdraw",
      "outputs": [],
      "payable": false,
      "stateMutability": "nonpayable",
      "type": "function"
    },
    {
      "constant": false,
      "inputs": [
        {
          "name": "projectId",
          "type": "uint16"
        },
        {
          "name": "author",
          "type": "string"
        },
        {
          "name": "content",
          "type": "string"
        }
      ],
      "name": "addReview",
      "outputs": [],
      "payable": false,
      "stateMutability": "nonpayable",
      "type": "function"
    },
    {
      "constant": true,
      "inputs": [
        {
          "name": "projectId",
          "type": "uint16"
        }
      ],
      "name": "getClosing",
      "outputs": [
        {
          "name": "id",
          "type": "uint256"
        },
        {
          "name": "acceptCount",
          "type": "uint16"
        },
        {
          "name": "claimCount",
          "type": "uint16"
        },
        {
          "name": "content",
          "type": "string"
        },
        {
          "name": "withdrawAddr",
          "type": "address"
        }
      ],
      "payable": false,
      "stateMutability": "view",
      "type": "function"
    },
    {
      "constant": true,
      "inputs": [
        {
          "name": "projectId",
          "type": "uint16"
        },
        {
          "name": "reviewId",
          "type": "uint16"
        }
      ],
      "name": "getReview",
      "outputs": [
        {
          "name": "id",
          "type": "uint16"
        },
        {
          "name": "author",
          "type": "string"
        },
        {
          "name": "content",
          "type": "string"
        },
        {
          "name": "sender",
          "type": "address"
        },
        {
          "name": "date",
          "type": "uint256"
        }
      ],
      "payable": false,
      "stateMutability": "view",
      "type": "function"
    },
    {
      "constant": true,
      "inputs": [
        {
          "name": "projectId",
          "type": "uint16"
        }
      ],
      "name": "getBackers",
      "outputs": [
        {
          "name": "",
          "type": "uint256[]"
        },
        {
          "name": "",
          "type": "uint256[]"
        },
        {
          "name": "",
          "type": "uint256[]"
        },
        {
          "name": "",
          "type": "uint256[]"
        },
        {
          "name": "",
          "type": "bool[]"
        },
        {
          "name": "",
          "type": "bool[]"
        },
        {
          "name": "",
          "type": "bytes"
        }
      ],
      "payable": false,
      "stateMutability": "view",
      "type": "function"
    },
    {
      "constant": false,
      "inputs": [
        {
          "name": "_tokenContract",
          "type": "address"
        }
      ],
      "name": "setToken",
      "outputs": [],
      "payable": false,
      "stateMutability": "nonpayable",
      "type": "function"
    }
  ],
  "bytecode": "0x60806040526000600260146101000a81548161ffff021916908361ffff16021790555060006003553480156200003457600080fd5b5062000046336200008d60201b60201c565b33600260006101000a81548173ffffffffffffffffffffffffffffffffffffffff021916908373ffffffffffffffffffffffffffffffffffffffff160217905550620002b2565b620000a8816000620000ee60201b6200390f1790919060201c565b8073ffffffffffffffffffffffffffffffffffffffff167f22380c05984257a1cb900161c713dd71d39e74820f1aea43bd3f1bdd2096129960405160405180910390a250565b620001008282620001d260201b60201c565b1562000174576040517f08c379a000000000000000000000000000000000000000000000000000000000815260040180806020018281038252601f8152602001807f526f6c65733a206163636f756e7420616c72656164792068617320726f6c650081525060200191505060405180910390fd5b60018260000160008373ffffffffffffffffffffffffffffffffffffffff1673ffffffffffffffffffffffffffffffffffffffff16815260200190815260200160002060006101000a81548160ff0219169083151502179055505050565b60008073ffffffffffffffffffffffffffffffffffffffff168273ffffffffffffffffffffffffffffffffffffffff1614156200025b576040517f08c379a000000000000000000000000000000000000000000000000000000000815260040180806020018281038252602281526020018062003f836022913960400191505060405180910390fd5b8260000160008373ffffffffffffffffffffffffffffffffffffffff1673ffffffffffffffffffffffffffffffffffffffff16815260200190815260200160002060009054906101000a900460ff16905092915050565b613cc180620002c26000396000f3fe608060405234801561001057600080fd5b50600436106101585760003560e01c8063787a66b2116100c3578063d710633a1161007c578063d710633a14610d10578063d738d4b314610e20578063d7b9844b14610e5e578063e311f99e146110b9578063f53d0a8e146111b0578063f844a51e146111fa57610158565b8063787a66b21461088f578063a0358daf146109fd578063ad7a672f14610a67578063b0342fe114610a85578063b779967f14610be5578063bb5f747b14610cb457610158565b806344dba9ad1161011557806344dba9ad1461050c5780634c5a628c146105f5578063541858b9146105ff57806355a373d6146106fe5780636d3f38f9146107485780637362d9c81461084b57610158565b806302f5351b1461015d5780630ed047d414610208578063107046bd146102d7578063144fa6d71461044f57806332723e311461049357806336fbad26146104e6575b600080fd5b61018d6004803603602081101561017357600080fd5b81019080803561ffff16906020019092919050505061135a565b6040518080602001828103825283818151815260200191508051906020019080838360005b838110156101cd5780820151818401526020810190506101b2565b50505050905090810190601f1680156101fa5780820380516001836020036101000a031916815260200191505b509250505060405180910390f35b6102c16004803603602081101561021e57600080fd5b810190808035906020019064010000000081111561023b57600080fd5b82018360208201111561024d57600080fd5b8035906020019184600183028401116401000000008311171561026f57600080fd5b91908080601f016020809104026020016040519081016040528093929190818152602001838380828437600081840152601f19601f82011690508083019250505050505050919291929050505061141c565b6040518082815260200191505060405180910390f35b610303600480360360208110156102ed57600080fd5b8101908080359060200190929190505050611811565b604051808c61ffff1661ffff168152602001806020018b81526020018a81526020018981526020018860ff1660ff1681526020018760ff1660ff1681526020018661ffff1661ffff1681526020018560ff1660ff168152602001806020018415151515815260200183810383528d818151815260200191508051906020019080838360005b838110156103a3578082015181840152602081019050610388565b50505050905090810190601f1680156103d05780820380516001836020036101000a031916815260200191505b50838103825285818151815260200191508051906020019080838360005b838110156104095780820151818401526020810190506103ee565b50505050905090810190601f1680156104365780820380516001836020036101000a031916815260200191505b509d505050505050505050505050505060405180910390f35b6104916004803603602081101561046557600080fd5b81019080803573ffffffffffffffffffffffffffffffffffffffff1690602001909291905050506119eb565b005b6104e4600480360360808110156104a957600080fd5b81019080803561ffff1690602001909291908035906020019092919080359060200190929190803560ff169060200190929190505050611a8d565b005b6104ee611b62565b604051808261ffff1661ffff16815260200191505060405180910390f35b6105f36004803603606081101561052257600080fd5b81019080803561ffff1690602001909291908035906020019064010000000081111561054d57600080fd5b82018360208201111561055f57600080fd5b8035906020019184600183028401116401000000008311171561058157600080fd5b91908080601f016020809104026020016040519081016040528093929190818152602001838380828437600081840152601f19601f820116905080830192505050505050509192919290803573ffffffffffffffffffffffffffffffffffffffff169060200190929190505050611b76565b005b6105fd611f92565b005b61062b6004803603602081101561061557600080fd5b8101908080359060200190929190505050611f9d565b604051808681526020018561ffff1661ffff1681526020018461ffff1661ffff168152602001806020018373ffffffffffffffffffffffffffffffffffffffff1673ffffffffffffffffffffffffffffffffffffffff168152602001828103825284818151815260200191508051906020019080838360005b838110156106bf5780820151818401526020810190506106a4565b50505050905090810190601f1680156106ec5780820380516001836020036101000a031916815260200191505b50965050505050505060405180910390f35b6107066120a7565b604051808273ffffffffffffffffffffffffffffffffffffffff1673ffffffffffffffffffffffffffffffffffffffff16815260200191505060405180910390f35b6107786004803603602081101561075e57600080fd5b81019080803561ffff1690602001909291905050506120cd565b604051808681526020018561ffff1661ffff1681526020018461ffff1661ffff168152602001806020018373ffffffffffffffffffffffffffffffffffffffff1673ffffffffffffffffffffffffffffffffffffffff168152602001828103825284818151815260200191508051906020019080838360005b8381101561080c5780820151818401526020810190506107f1565b50505050905090810190601f1680156108395780820380516001836020036101000a031916815260200191505b50965050505050505060405180910390f35b61088d6004803603602081101561086157600080fd5b81019080803573ffffffffffffffffffffffffffffffffffffffff169060200190929190505050612274565b005b6108cd600480360360408110156108a557600080fd5b81019080803561ffff169060200190929190803561ffff1690602001909291905050506122de565b604051808661ffff1661ffff16815260200180602001806020018573ffffffffffffffffffffffffffffffffffffffff1673ffffffffffffffffffffffffffffffffffffffff168152602001848152602001838103835287818151815260200191508051906020019080838360005b8381101561095757808201518184015260208101905061093c565b50505050905090810190601f1680156109845780820380516001836020036101000a031916815260200191505b50838103825286818151815260200191508051906020019080838360005b838110156109bd5780820151818401526020810190506109a2565b50505050905090810190601f1680156109ea5780820380516001836020036101000a031916815260200191505b5097505050505050505060405180910390f35b610a4d60048036036040811015610a1357600080fd5b81019080803561ffff169060200190929190803573ffffffffffffffffffffffffffffffffffffffff169060200190929190505050612522565b604051808215151515815260200191505060405180910390f35b610a6f6125ba565b6040518082815260200191505060405180910390f35b610be360048036036060811015610a9b57600080fd5b81019080803561ffff16906020019092919080359060200190640100000000811115610ac657600080fd5b820183602082011115610ad857600080fd5b80359060200191846001830284011164010000000083111715610afa57600080fd5b91908080601f016020809104026020016040519081016040528093929190818152602001838380828437600081840152601f19601f82011690508083019250505050505050919291929080359060200190640100000000811115610b5d57600080fd5b820183602082011115610b6f57600080fd5b80359060200191846001830284011164010000000083111715610b9157600080fd5b91908080601f016020809104026020016040519081016040528093929190818152602001838380828437600081840152601f19601f8201169050808301925050505050505091929192905050506125c0565b005b610c1560048036036020811015610bfb57600080fd5b81019080803561ffff1690602001909291905050506127a2565b604051808060200180602001838103835285818151815260200191508051906020019060200280838360005b83811015610c5c578082015181840152602081019050610c41565b50505050905001838103825284818151815260200191508051906020019060200280838360005b83811015610c9e578082015181840152602081019050610c83565b5050505090500194505050505060405180910390f35b610cf660048036036020811015610cca57600080fd5b81019080803573ffffffffffffffffffffffffffffffffffffffff169060200190929190505050612944565b604051808215151515815260200191505060405180910390f35b610d4060048036036020811015610d2657600080fd5b81019080803561ffff169060200190929190505050612961565b604051808b61ffff1661ffff168152602001806020018a81526020018981526020018881526020018760ff1660ff1681526020018660ff1660ff1681526020018561ffff1661ffff1681526020018460ff1660ff1681526020018315151515815260200182810382528b818151815260200191508051906020019080838360005b83811015610ddc578082015181840152602081019050610dc1565b50505050905090810190601f168015610e095780820380516001836020036101000a031916815260200191505b509b50505050505050505050505060405180910390f35b610e5c60048036036040811015610e3657600080fd5b81019080803561ffff169060200190929190803515159060200190929190505050612acb565b005b610e8e60048036036020811015610e7457600080fd5b81019080803561ffff169060200190929190505050612c36565b604051808060200180602001806020018060200180602001806020018060200188810388528f818151815260200191508051906020019060200280838360005b83811015610ee9578082015181840152602081019050610ece565b5050505090500188810387528e818151815260200191508051906020019060200280838360005b83811015610f2b578082015181840152602081019050610f10565b5050505090500188810386528d818151815260200191508051906020019060200280838360005b83811015610f6d578082015181840152602081019050610f52565b5050505090500188810385528c818151815260200191508051906020019060200280838360005b83811015610faf578082015181840152602081019050610f94565b5050505090500188810384528b818151815260200191508051906020019060200280838360005b83811015610ff1578082015181840152602081019050610fd6565b5050505090500188810383528a818151815260200191508051906020019060200280838360005b83811015611033578082015181840152602081019050611018565b50505050905001888103825289818151815260200191508051906020019080838360005b83811015611072578082015181840152602081019050611057565b50505050905090810190601f16801561109f5780820380516001836020036101000a031916815260200191505b509e50505050505050505050505050505060405180910390f35b611196600480360360808110156110cf57600080fd5b81019080803561ffff169060200190929190803590602001906401000000008111156110fa57600080fd5b82018360208201111561110c57600080fd5b8035906020019184600183028401116401000000008311171561112e57600080fd5b91908080601f016020809104026020016040519081016040528093929190818152602001838380828437600081840152601f19601f82011690508083019250505050505050919291929080359060200190929190803515159060200190929190505050613152565b604051808215151515815260200191505060405180910390f35b6111b8613539565b604051808273ffffffffffffffffffffffffffffffffffffffff1673ffffffffffffffffffffffffffffffffffffffff16815260200191505060405180910390f35b6113586004803603606081101561121057600080fd5b81019080803561ffff1690602001909291908035906020019064010000000081111561123b57600080fd5b82018360208201111561124d57600080fd5b8035906020019184600183028401116401000000008311171561126f57600080fd5b91908080601f016020809104026020016040519081016040528093929190818152602001838380828437600081840152601f19601f820116905080830192505050505050509192919290803590602001906401000000008111156112d257600080fd5b8201836020820111156112e457600080fd5b8035906020019184600183028401116401000000008311171561130657600080fd5b91908080601f016020809104026020016040519081016040528093929190818152602001838380828437600081840152601f19601f82011690508083019250505050505050919291929050505061355f565b005b60606000600460008461ffff1681526020019081526020016000209050806006018054600181600116156101000203166002900480601f01602080910402602001604051908101604052809291908181526020018280546001816001161561010002031660029004801561140f5780601f106113e45761010080835404028352916020019161140f565b820191906000526020600020905b8154815290600101906020018083116113f257829003601f168201915b5050505050915050919050565b600061142733612944565b61147c576040517f08c379a0000000000000000000000000000000000000000000000000000000008152600401808060200182810382526040815260200180613c566040913960400191505060405180910390fd5b604051806101600160405280600260149054906101000a900461ffff1661ffff1681526020018381526020016000815260200160008152602001428152602001600060ff168152602001600060ff168152602001600061ffff168152602001600060ff1681526020016040518060200160405280600081525081526020016000151581525060046000600260149054906101000a900461ffff1661ffff16815260200190815260200160002060008201518160000160006101000a81548161ffff021916908361ffff16021790555060208201518160010190805190602001906115679291906139ea565b5060408201518160020155606082015181600301556080820151816004015560a08201518160050160006101000a81548160ff021916908360ff16021790555060c08201518160050160016101000a81548160ff021916908360ff16021790555060e08201518160050160026101000a81548161ffff021916908361ffff1602179055506101008201518160050160046101000a81548160ff021916908360ff16021790555061012082015181600601908051906020019061162a9291906139ea565b506101408201518160070160006101000a81548160ff0219169083151502179055509050506040518060a00160405280600260149054906101000a900461ffff1661ffff168152602001600061ffff168152602001600061ffff168152602001604051806020016040528060008152508152602001600073ffffffffffffffffffffffffffffffffffffffff1681525060056000600260149054906101000a900461ffff1661ffff1681526020019081526020016000206000820151816000015560208201518160010160006101000a81548161ffff021916908361ffff16021790555060408201518160010160026101000a81548161ffff021916908361ffff160217905550606082015181600201908051906020019061174d9291906139ea565b5060808201518160030160006101000a81548173ffffffffffffffffffffffffffffffffffffffff021916908373ffffffffffffffffffffffffffffffffffffffff1602179055509050506002601481819054906101000a900461ffff168092919060010191906101000a81548161ffff021916908361ffff1602179055505060046000600260149054906101000a900461ffff1661ffff16815260200190815260200160002060000160009054906101000a900461ffff1661ffff169050919050565b60046020528060005260406000206000915090508060000160009054906101000a900461ffff1690806001018054600181600116156101000203166002900480601f0160208091040260200160405190810160405280929190818152602001828054600181600116156101000203166002900480156118d15780601f106118a6576101008083540402835291602001916118d1565b820191906000526020600020905b8154815290600101906020018083116118b457829003601f168201915b5050505050908060020154908060030154908060040154908060050160009054906101000a900460ff16908060050160019054906101000a900460ff16908060050160029054906101000a900461ffff16908060050160049054906101000a900460ff1690806006018054600181600116156101000203166002900480601f0160208091040260200160405190810160405280929190818152602001828054600181600116156101000203166002900480156119ce5780601f106119a3576101008083540402835291602001916119ce565b820191906000526020600020905b8154815290600101906020018083116119b157829003601f168201915b5050505050908060070160009054906101000a900460ff1690508b565b6119f433612944565b611a49576040517f08c379a0000000000000000000000000000000000000000000000000000000008152600401808060200182810382526040815260200180613c566040913960400191505060405180910390fd5b80600160006101000a81548173ffffffffffffffffffffffffffffffffffffffff021916908373ffffffffffffffffffffffffffffffffffffffff16021790555050565b611a9633612944565b611aeb576040517f08c379a0000000000000000000000000000000000000000000000000000000008152600401808060200182810382526040815260200180613c566040913960400191505060405180910390fd5b82600460008661ffff1681526020019081526020016000206002018190555081600460008661ffff1681526020019081526020016000206004018190555080600460008661ffff16815260200190815260200160002060050160006101000a81548160ff021916908360ff16021790555050505050565b600260149054906101000a900461ffff1681565b611b7f33612944565b611bd4576040517f08c379a0000000000000000000000000000000000000000000000000000000008152600401808060200182810382526040815260200180613c566040913960400191505060405180910390fd5b6000600160009054906101000a900473ffffffffffffffffffffffffffffffffffffffff169050611c03613a6a565b600460008661ffff168152602001908152602001600020604051806101600160405290816000820160009054906101000a900461ffff1661ffff1661ffff168152602001600182018054600181600116156101000203166002900480601f016020809104026020016040519081016040528092919081815260200182805460018160011615610100020316600290048015611cdf5780601f10611cb457610100808354040283529160200191611cdf565b820191906000526020600020905b815481529060010190602001808311611cc257829003601f168201915b505050505081526020016002820154815260200160038201548152602001600482015481526020016005820160009054906101000a900460ff1660ff1660ff1681526020016005820160019054906101000a900460ff1660ff1660ff1681526020016005820160029054906101000a900461ffff1661ffff1661ffff1681526020016005820160049054906101000a900460ff1660ff1660ff168152602001600682018054600181600116156101000203166002900480601f016020809104026020016040519081016040528092919081815260200182805460018160011615610100020316600290048015611e165780601f10611deb57610100808354040283529160200191611e16565b820191906000526020600020905b815481529060010190602001808311611df957829003601f168201915b505050505081526020016007820160009054906101000a900460ff16151515158152505090508173ffffffffffffffffffffffffffffffffffffffff1663a9059cbb8483606001516040518363ffffffff1660e01b8152600401808373ffffffffffffffffffffffffffffffffffffffff1673ffffffffffffffffffffffffffffffffffffffff16815260200182815260200192505050602060405180830381600087803b158015611ec757600080fd5b505af1158015611edb573d6000803e3d6000fd5b505050506040513d6020811015611ef157600080fd5b81019080805190602001909291905050505082600560008761ffff16815260200190815260200160002060030160006101000a81548173ffffffffffffffffffffffffffffffffffffffff021916908373ffffffffffffffffffffffffffffffffffffffff16021790555083600560008761ffff1681526020019081526020016000206002019080519060200190611f8a929190613ad7565b505050505050565b611f9b33613620565b565b60056020528060005260406000206000915090508060000154908060010160009054906101000a900461ffff16908060010160029054906101000a900461ffff1690806002018054600181600116156101000203166002900480601f0160208091040260200160405190810160405280929190818152602001828054600181600116156101000203166002900480156120775780601f1061204c57610100808354040283529160200191612077565b820191906000526020600020905b81548152906001019060200180831161205a57829003601f168201915b5050505050908060030160009054906101000a900473ffffffffffffffffffffffffffffffffffffffff16905085565b600160009054906101000a900473ffffffffffffffffffffffffffffffffffffffff1681565b6000806000606060006120de613b57565b600560008861ffff1681526020019081526020016000206040518060a0016040529081600082015481526020016001820160009054906101000a900461ffff1661ffff1661ffff1681526020016001820160029054906101000a900461ffff1661ffff1661ffff168152602001600282018054600181600116156101000203166002900480601f0160208091040260200160405190810160405280929190818152602001828054600181600116156101000203166002900480156121e35780601f106121b8576101008083540402835291602001916121e3565b820191906000526020600020905b8154815290600101906020018083116121c657829003601f168201915b505050505081526020016003820160009054906101000a900473ffffffffffffffffffffffffffffffffffffffff1673ffffffffffffffffffffffffffffffffffffffff1673ffffffffffffffffffffffffffffffffffffffff1681525050905080600001518160200151826040015183606001518460800151819150955095509550955095505091939590929450565b61227d33612944565b6122d2576040517f08c379a0000000000000000000000000000000000000000000000000000000008152600401808060200182810382526040815260200180613c566040913960400191505060405180910390fd5b6122db8161367a565b50565b60006060806000806122ee613ba4565b600460008961ffff16815260200190815260200160002060090160008861ffff1681526020019081526020016000206040518060a00160405290816000820160009054906101000a900461ffff1661ffff1661ffff168152602001600182018054600181600116156101000203166002900480601f0160208091040260200160405190810160405280929190818152602001828054600181600116156101000203166002900480156123e15780601f106123b6576101008083540402835291602001916123e1565b820191906000526020600020905b8154815290600101906020018083116123c457829003601f168201915b50505050508152602001600282018054600181600116156101000203166002900480601f0160208091040260200160405190810160405280929190818152602001828054600181600116156101000203166002900480156124835780601f1061245857610100808354040283529160200191612483565b820191906000526020600020905b81548152906001019060200180831161246657829003601f168201915b505050505081526020016003820160009054906101000a900473ffffffffffffffffffffffffffffffffffffffff1673ffffffffffffffffffffffffffffffffffffffff1673ffffffffffffffffffffffffffffffffffffffff16815260200160048201548152505090508060000151816020015182604001518360600151846080015183935082925095509550955095509550509295509295909350565b600080600460008561ffff1681526020019081526020016000209050600081600a0160008573ffffffffffffffffffffffffffffffffffffffff1673ffffffffffffffffffffffffffffffffffffffff168152602001908152602001600020549050600082600801600083815260200190815260200160002090508060040160029054906101000a900460ff16935050505092915050565b60035481565b6125c933612944565b61261e576040517f08c379a0000000000000000000000000000000000000000000000000000000008152600401808060200182810382526040815260200180613c566040913960400191505060405180910390fd5b6000600460008561ffff16815260200190815260200160002090506040518060a001604052808260050160049054906101000a900460ff1660ff1661ffff1681526020018481526020018381526020013373ffffffffffffffffffffffffffffffffffffffff168152602001428152508160090160008360050160049054906101000a900460ff1660ff16815260200190815260200160002060008201518160000160006101000a81548161ffff021916908361ffff16021790555060208201518160010190805190602001906126f69291906139ea565b5060408201518160020190805190602001906127139291906139ea565b5060608201518160030160006101000a81548173ffffffffffffffffffffffffffffffffffffffff021916908373ffffffffffffffffffffffffffffffffffffffff1602179055506080820151816004015590505080600501600481819054906101000a900460ff168092919060010191906101000a81548160ff021916908360ff1602179055505050505050565b6060806000600460008561ffff168152602001908152602001600020905060608160050160029054906101000a900461ffff1661ffff166040519080825280602002602001820160405280156128075781602001602082028038833980820191505090505b50905060608260050160029054906101000a900461ffff1661ffff166040519080825280602002602001820160405280156128515781602001602082028038833980820191505090505b50905060008090505b8360050160029054906101000a900461ffff1661ffff168110156129355783600801600082815260200190815260200160002060060160009054906101000a900473ffffffffffffffffffffffffffffffffffffffff168382815181106128bd57fe5b602002602001019073ffffffffffffffffffffffffffffffffffffffff16908173ffffffffffffffffffffffffffffffffffffffff16815250508360080160008281526020019081526020016000206005015482828151811061291c57fe5b602002602001018181525050808060010191505061285a565b50818194509450505050915091565b600061295a8260006136d490919063ffffffff16565b9050919050565b600060606000806000806000806000806000600460008d61ffff16815260200190815260200160002090508060000160009054906101000a900461ffff16816001018260020154836003015484600401548560050160009054906101000a900460ff168660050160019054906101000a900460ff168760050160029054906101000a900461ffff168860050160049054906101000a900460ff168960070160009054906101000a900460ff16888054600181600116156101000203166002900480601f016020809104026020016040519081016040528092919081815260200182805460018160011615610100020316600290048015612aa25780601f10612a7757610100808354040283529160200191612aa2565b820191906000526020600020905b815481529060010190602001808311612a8557829003601f168201915b505050505098509a509a509a509a509a509a509a509a509a509a50509193959799509193959799565b6000600460008461ffff1681526020019081526020016000209050600081600a0160003373ffffffffffffffffffffffffffffffffffffffff1673ffffffffffffffffffffffffffffffffffffffff168152602001908152602001600020549050600082600801600083815260200190815260200160002090508060040160029054906101000a900460ff1615612b6457505050612c32565b60018160040160026101000a81548160ff021916908315150217905550600115158415151415612be057600560008661ffff168152602001908152602001600020600101600081819054906101000a900461ffff168092919060010191906101000a81548161ffff021916908361ffff16021790555050612c2e565b600560008661ffff168152602001908152602001600020600101600281819054906101000a900461ffff168092919060010191906101000a81548161ffff021916908361ffff160217905550505b5050505b5050565b60608060608060608060606000600460008a61ffff168152602001908152602001600020905060608160050160029054906101000a900461ffff1661ffff16604051908082528060200260200182016040528015612ca35781602001602082028038833980820191505090505b50905060608260050160029054906101000a900461ffff1661ffff16604051908082528060200260200182016040528015612ced5781602001602082028038833980820191505090505b50905060608360050160029054906101000a900461ffff1661ffff16604051908082528060200260200182016040528015612d375781602001602082028038833980820191505090505b50905060608460050160029054906101000a900461ffff1661ffff16604051908082528060200260200182016040528015612d815781602001602082028038833980820191505090505b50905060608560050160029054906101000a900461ffff1661ffff16604051908082528060200260200182016040528015612dcb5781602001602082028038833980820191505090505b50905060608660050160029054906101000a900461ffff1661ffff16604051908082528060200260200182016040528015612e155781602001602082028038833980820191505090505b50905060608760050160029054906101000a900461ffff1660400261ffff166040519080825280601f01601f191660200182016040528015612e665781602001600182028038833980820191505090505b50905060008860050160029054906101000a900461ffff1660400261ffff16905060008090505b8960050160029054906101000a900461ffff1661ffff168161ffff1610156131285760008a60080160008361ffff16815260200190815260200160002090508060000160009054906101000a900461ffff1661ffff168a8361ffff1681518110612ef357fe5b6020026020010181815250508060020154898361ffff1681518110612f1457fe5b6020026020010181815250508060030154888361ffff1681518110612f3557fe5b6020026020010181815250508060050154878361ffff1681518110612f5657fe5b6020026020010181815250508060040160009054906101000a900460ff16868361ffff1681518110612f8457fe5b6020026020010190151590811515815250508060040160019054906101000a900460ff16858361ffff1681518110612fb857fe5b60200260200101901515908115158152505061307183826001018054600181600116156101000203166002900480601f0160208091040260200160405190810160405280929190818152602001828054600181600116156101000203166002900480156130665780601f1061303b57610100808354040283529160200191613066565b820191906000526020600020905b81548152906001019060200180831161304957829003601f168201915b5050505050866137b2565b613116816001018054600181600116156101000203166002900480601f01602080910402602001604051908101604052809291908181526020018280546001816001161561010002031660029004801561310c5780601f106130e15761010080835404028352916020019161310c565b820191906000526020600020905b8154815290600101906020018083116130ef57829003601f168201915b5050505050613813565b83039250508080600101915050612e8d565b50878787878787879f509f509f509f509f509f509f50505050505050505050919395979092949650565b600080600160009054906101000a900473ffffffffffffffffffffffffffffffffffffffff1690508073ffffffffffffffffffffffffffffffffffffffff166323b872dd3330876040518463ffffffff1660e01b8152600401808473ffffffffffffffffffffffffffffffffffffffff1673ffffffffffffffffffffffffffffffffffffffff1681526020018373ffffffffffffffffffffffffffffffffffffffff1673ffffffffffffffffffffffffffffffffffffffff1681526020018281526020019350505050602060405180830381600087803b15801561323557600080fd5b505af1158015613249573d6000803e3d6000fd5b505050506040513d602081101561325f57600080fd5b810190808051906020019092919050505050836003600082825401925050819055506000600460008861ffff16815260200190815260200160002090508481600301600082825401925050819055506040518061012001604052808260050160029054906101000a900461ffff1661ffff16815260200187815260200186815260200142815260200185151581526020016000151581526020016000151581526020014381526020013373ffffffffffffffffffffffffffffffffffffffff168152508160080160008360050160029054906101000a900461ffff1661ffff16815260200190815260200160002060008201518160000160006101000a81548161ffff021916908361ffff160217905550602082015181600101908051906020019061338c9291906139ea565b50604082015181600201556060820151816003015560808201518160040160006101000a81548160ff02191690831515021790555060a08201518160040160016101000a81548160ff02191690831515021790555060c08201518160040160026101000a81548160ff02191690831515021790555060e082015181600501556101008201518160060160006101000a81548173ffffffffffffffffffffffffffffffffffffffff021916908373ffffffffffffffffffffffffffffffffffffffff1602179055509050508060050160029054906101000a900461ffff1661ffff1681600a0160003373ffffffffffffffffffffffffffffffffffffffff1673ffffffffffffffffffffffffffffffffffffffff1681526020019081526020016000208190555080600501600281819054906101000a900461ffff168092919060010191906101000a81548161ffff021916908361ffff1602179055505060011515841515141561352b5780600501600181819054906101000a900460ff168092919060010191906101000a81548160ff021916908360ff160217905550505b600192505050949350505050565b600260009054906101000a900473ffffffffffffffffffffffffffffffffffffffff1681565b61356833612944565b6135bd576040517f08c379a0000000000000000000000000000000000000000000000000000000008152600401808060200182810382526040815260200180613c566040913960400191505060405180910390fd5b81600460008561ffff16815260200190815260200160002060010190805190602001906135eb929190613ad7565b5080600460008561ffff168152602001908152602001600020600601908051906020019061361a929190613ad7565b50505050565b61363481600061385290919063ffffffff16565b8073ffffffffffffffffffffffffffffffffffffffff167f0a8eb35e5ca14b3d6f28e4abf2f128dbab231a58b56e89beb5d636115001e16560405160405180910390a250565b61368e81600061390f90919063ffffffff16565b8073ffffffffffffffffffffffffffffffffffffffff167f22380c05984257a1cb900161c713dd71d39e74820f1aea43bd3f1bdd2096129960405160405180910390a250565b60008073ffffffffffffffffffffffffffffffffffffffff168273ffffffffffffffffffffffffffffffffffffffff16141561375b576040517f08c379a0000000000000000000000000000000000000000000000000000000008152600401808060200182810382526022815260200180613c346022913960400191505060405180910390fd5b8260000160008373ffffffffffffffffffffffffffffffffffffffff1673ffffffffffffffffffffffffffffffffffffffff16815260200190815260200160002060009054906101000a900460ff16905092915050565b600060208351816137bf57fe5b049050600060208451816137cf57fe5b0611156137df5780806001019150505b60018101905060005b8181101561380c5760208102840151858401526020850394506001810190506137e8565b5050505050565b6000602082518161382057fe5b0490506000602083518161383057fe5b061461383f5780806001019150505b8080600101915050602081029050919050565b61385c82826136d4565b6138b1576040517f08c379a0000000000000000000000000000000000000000000000000000000008152600401808060200182810382526021815260200180613c136021913960400191505060405180910390fd5b60008260000160008373ffffffffffffffffffffffffffffffffffffffff1673ffffffffffffffffffffffffffffffffffffffff16815260200190815260200160002060006101000a81548160ff0219169083151502179055505050565b61391982826136d4565b1561398c576040517f08c379a000000000000000000000000000000000000000000000000000000000815260040180806020018281038252601f8152602001807f526f6c65733a206163636f756e7420616c72656164792068617320726f6c650081525060200191505060405180910390fd5b60018260000160008373ffffffffffffffffffffffffffffffffffffffff1673ffffffffffffffffffffffffffffffffffffffff16815260200190815260200160002060006101000a81548160ff0219169083151502179055505050565b828054600181600116156101000203166002900490600052602060002090601f016020900481019282601f10613a2b57805160ff1916838001178555613a59565b82800160010185558215613a59579182015b82811115613a58578251825591602001919060010190613a3d565b5b509050613a669190613bed565b5090565b604051806101600160405280600061ffff16815260200160608152602001600081526020016000815260200160008152602001600060ff168152602001600060ff168152602001600061ffff168152602001600060ff168152602001606081526020016000151581525090565b828054600181600116156101000203166002900490600052602060002090601f016020900481019282601f10613b1857805160ff1916838001178555613b46565b82800160010185558215613b46579182015b82811115613b45578251825591602001919060010190613b2a565b5b509050613b539190613bed565b5090565b6040518060a0016040528060008152602001600061ffff168152602001600061ffff16815260200160608152602001600073ffffffffffffffffffffffffffffffffffffffff1681525090565b6040518060a00160405280600061ffff1681526020016060815260200160608152602001600073ffffffffffffffffffffffffffffffffffffffff168152602001600081525090565b613c0f91905b80821115613c0b576000816000905550600101613bf3565b5090565b9056fe526f6c65733a206163636f756e7420646f6573206e6f74206861766520726f6c65526f6c65733a206163636f756e7420697320746865207a65726f206164647265737357686974656c69737441646d696e526f6c653a2063616c6c657220646f6573206e6f742068617665207468652057686974656c69737441646d696e20726f6c65a165627a7a7230582054114c3d2b09e767a1d6725497fec278f0a7dd863adde1f18a7853ec890bdb130029526f6c65733a206163636f756e7420697320746865207a65726f2061646472657373",
  "source": "pragma solidity ^0.5.0;\r\n\r\nimport \"@openzeppelin/contracts/access/roles/WhiteListAdminRole.sol\";\r\nimport \"./GiveToken.sol\";\r\n\r\n// Box         .\r\ncontract GiveBox is WhitelistAdminRole {\r\n\r\n    struct Review {\r\n        uint16 id;\r\n        string author;\r\n        string content;\r\n        address sender;\r\n        uint date;\r\n    }\r\n\r\n    struct Backer {\r\n        uint16  id;\r\n        string  name;\r\n        uint    amount;\r\n        uint    date;\r\n        bool    applyTrooper;\r\n        bool    isTrooper;\r\n        bool    voted;\r\n        uint    blockNumber;\r\n        address addr;\r\n    }\r\n\r\n    struct Project {\r\n        uint16 id;\r\n        string title;\r\n        uint   goal;\r\n        uint   fund;\r\n        uint   date;\r\n        uint8  trooperSelect;\r\n        uint8  trooperCount;\r\n\r\n        uint16 backerCount;\r\n        uint8 reviewCount;\r\n\r\n        string content;\r\n\r\n        bool isClosed;\r\n        mapping (uint => Backer) backers;\r\n        mapping (uint => Review) reviews;\r\n        mapping (address => uint) backLink;\r\n    }\r\n\r\n    struct ProjectClosing {\r\n        uint id;\r\n        uint16 acceptCount;\r\n        uint16 claimCount;\r\n        string content;\r\n        address withdraw;\r\n    }\r\n\r\n    address public tokenContract;   //   \r\n    address public administrator;   // [TODO]   \r\n\r\n    uint16 public projectCount = 0;\r\n    uint   public totalBalance = 0;        //    \r\n\r\n    mapping (uint => Project) public projects;\r\n    mapping (uint => ProjectClosing) public projectCloses;\r\n\r\n    // -----------------------------------------------\r\n    constructor () public {\r\n        administrator = msg.sender;\r\n    }\r\n\r\n    //  \r\n    function addProject(string memory title) public onlyWhitelistAdmin returns(uint id) {\r\n        projects[projectCount] = Project(projectCount, title, 0, 0, now, 0, 0, 0, 0, '', false);\r\n        projectCloses[projectCount] = ProjectClosing(projectCount, 0, 0, '', address(0));\r\n        projectCount++;\r\n\r\n        return projects[projectCount].id;\r\n    }\r\n\r\n    //   \r\n    function getProject(uint16 projectId) public view returns(\r\n        uint16 id, string memory title, uint goal, uint fund, uint date,\r\n        uint8 trooperSelect, uint8 trooperCount, uint16 backerCount, uint8 reviewCount, bool isClosed)\r\n    {\r\n        Project storage p = projects[projectId];\r\n        return (p.id, p.title, p.goal, p.fund, p.date, p.trooperSelect, p.trooperCount, p.backerCount, p.reviewCount, p.isClosed);\r\n    }\r\n\r\n    //  \r\n    function getProjectContent(uint16 projectId) public view returns(string memory content) {\r\n        Project storage p = projects[projectId];\r\n        return (p.content);\r\n    }\r\n\r\n    //   \r\n    function editProjectContent(uint16 projectId, string memory title, string memory content) public onlyWhitelistAdmin {\r\n        projects[projectId].title = title;\r\n        projects[projectId].content = content;\r\n    }\r\n\r\n    //   \r\n    function editProjectOptions(uint16 projectId, uint goal, uint date, uint8 trooperSelect) public onlyWhitelistAdmin {\r\n        projects[projectId].goal = goal;\r\n        projects[projectId].date = date;\r\n        projects[projectId].trooperSelect = trooperSelect;\r\n    }\r\n\r\n    //  \r\n    function give(uint16 projectId, string memory name, uint256 amount, bool applyTrooper) public returns (bool) {\r\n\r\n        //   .\r\n        GiveToken token = GiveToken(tokenContract);\r\n        token.transferFrom(msg.sender, address(this), amount);\r\n\r\n        totalBalance += amount;\r\n\r\n        //   .\r\n        Project storage p = projects[projectId];\r\n\r\n        p.fund += amount;\r\n\r\n        p.backers[p.backerCount] = Backer(p.backerCount, name, amount, now, applyTrooper, false, false, block.number, msg.sender);\r\n        p.backLink[msg.sender] = p.backerCount;\r\n\r\n        p.backerCount++;\r\n\r\n        if (applyTrooper == true) {\r\n            p.trooperCount++;\r\n        }\r\n\r\n        return true;\r\n    }\r\n\r\n    function vote(uint16 projectId, bool isAccept) public {\r\n\r\n        Project storage p = projects[projectId];\r\n        uint backNum = p.backLink[msg.sender];\r\n        Backer storage backer = p.backers[backNum];\r\n\r\n        if (backer.voted) return;\r\n\r\n        backer.voted = true;\r\n\r\n        if (isAccept == true)\r\n            projectCloses[projectId].acceptCount++;\r\n        else\r\n            projectCloses[projectId].claimCount++;\r\n\r\n    }\r\n\r\n    function isBackerVoted(uint16 projectId, address backerAddr) public view returns (bool voted) {\r\n\r\n        Project storage p = projects[projectId];\r\n        uint backNum = p.backLink[backerAddr];\r\n        Backer storage backer = p.backers[backNum];\r\n\r\n        return backer.voted;\r\n    }\r\n\r\n    function getBackersAddrs(uint16 projectId) public view returns (address[] memory addr, uint[] memory blockNumber) {\r\n\r\n        Project storage p = projects[projectId];\r\n\r\n        address[] memory bArray = new address[](p.backerCount);\r\n        uint[] memory uArray = new uint[](p.backerCount);\r\n\r\n        for (uint i = 0; i < p.backerCount; i++) {\r\n            bArray[i] = p.backers[i].addr;\r\n            uArray[i] = p.backers[i].blockNumber;\r\n        }\r\n\r\n        return (bArray,uArray);\r\n    }\r\n\r\n    function withdraw(uint16 projectId, string memory content, address receiver) public onlyWhitelistAdmin {\r\n        GiveToken token = GiveToken(tokenContract);\r\n\r\n        Project memory p = projects[projectId];\r\n        token.transfer(receiver, p.fund);\r\n\r\n        projectCloses[projectId].withdraw = receiver;\r\n        projectCloses[projectId].content  = content;        \r\n    }\r\n\r\n    function addReview(uint16 projectId, string memory author, string memory content ) public onlyWhitelistAdmin {\r\n        Project storage p = projects[projectId];\r\n        p.reviews[p.reviewCount] = Review(p.reviewCount, author, content, msg.sender, block.timestamp);\r\n        p.reviewCount++;\r\n    }\r\n\r\n    function getClosing(uint16 projectId) public view returns\r\n        (uint id, uint16 acceptCount, uint16 claimCount, string memory content, address withdrawAddr) {\r\n\r\n        ProjectClosing memory p = projectCloses[projectId];\r\n\r\n        return (p.id, p.acceptCount, p.claimCount, p.content, p.withdraw);\r\n    }\r\n\r\n    function getReview(uint16 projectId, uint16 reviewId) public view returns (\r\n        uint16 id, string memory author, string memory content, address sender, uint date)\r\n    {\r\n        Review memory r = projects[projectId].reviews[reviewId];\r\n\r\n        return (r.id, r.author, r.content, r.sender, r.date);\r\n    }\r\n\r\n    function getBackers(uint16 projectId) public view returns (\r\n        uint[] memory, uint[] memory, uint[] memory, uint[] memory,\r\n        bool[] memory, bool[] memory, bytes memory) {\r\n\r\n        Project storage p = projects[projectId];\r\n\r\n        uint[] memory _id     = new uint[](p.backerCount);\r\n        uint[] memory _amount = new uint[](p.backerCount);\r\n        uint[] memory _date   = new uint[](p.backerCount);\r\n        uint[] memory _blockNumber  = new uint[](p.backerCount);\r\n        bool[] memory _applyTrooper = new bool[](p.backerCount);\r\n        bool[] memory _isTrooper    = new bool[](p.backerCount);        \r\n        bytes  memory nameBuffer   = new bytes(64*p.backerCount);\r\n\r\n        uint offset = 64 * p.backerCount;\r\n\r\n        for (uint16 i = 0; i < p.backerCount; i++) {\r\n            Backer storage backer = p.backers[i];\r\n\r\n            _id[i]     = backer.id;\r\n            _amount[i] = backer.amount;\r\n            _date[i]   = backer.date;\r\n            _blockNumber[i]  = backer.blockNumber;\r\n\r\n            _applyTrooper[i] = backer.applyTrooper;\r\n            _isTrooper[i]    = backer.isTrooper;\r\n\r\n            stringToBytes(offset, bytes(backer.name), nameBuffer);\r\n            offset -= sizeOfString(backer.name);\r\n        }\r\n\r\n        return (_id, _amount, _date, _blockNumber, _applyTrooper, _isTrooper, nameBuffer);\r\n    }\r\n\r\n    //      \r\n    function setToken(address _tokenContract) public onlyWhitelistAdmin {\r\n        tokenContract = _tokenContract;\r\n    }\r\n\r\n\r\n    //   \r\n    // From https://github.com/pouladzade/Seriality\r\n    function stringToBytes(uint _offst, bytes memory _input, bytes memory _output) internal pure {\r\n        uint256 stack_size = _input.length / 32;\r\n        if(_input.length % 32 > 0) stack_size++;\r\n\r\n        assembly {\r\n            stack_size := add(stack_size,1)//adding because of 32 first bytes memory as the length\r\n            for { let index := 0 } lt(index,stack_size){ index := add(index ,1) } {\r\n                mstore(add(_output, _offst), mload(add(_input,mul(index,32))))\r\n                _offst := sub(_offst , 32)\r\n            }\r\n        }\r\n    }\r\n\r\n    function sizeOfString(string memory _in) internal pure  returns(uint _size){\r\n        _size = bytes(_in).length / 32;\r\n         if(bytes(_in).length % 32 != 0)  _size++;\r\n        _size++; // first 32 bytes is reserved for the size of the string\r\n        _size *= 32;\r\n    }\r\n\r\n    // End of Seriality --------------------------------\r\n\r\n}\r\n\r\n\r\n\r\n",
  "sourcePath": "C:/WORK/UDC-2019-Hackathon/smart_contract/contracts/GiveBox.sol",
  "compiler": {
    "name": "solc",
    "version": "0.5.8+commit.23d335f2.Emscripten.clang"
  },
  "schemaVersion": "3.0.14",
  "updatedAt": "2019-09-04T18:31:46.382Z",
  "devdoc": {
    "methods": {}
  },
  "userdoc": {
    "methods": {}
  }
}